:100000000C943F000C9467000C9467000C946700FC
:100010000C9467000C9467000C9467000C946700C4
:100020000C9467000C9467000C9467000C946700B4
:100030000C9467000C9467000C9467000C946700A4
:100040000C941E140C9467000C9458110C948A1193
:100050000C9467000C9467000C9467000C94670084
:100060000C9467000C946700B500940103085C08C9
:10007000160B090D320E0810BA115812E4001124A3
:100080001FBECFEFD8E0DEBFCDBF11E0A0E0B1E0F2
:10009000E4E6FFE202C005900D92A83AB107D9F755
:1000A00023E0A8EAB1E001C01D92A530B207E1F754
:1000B00010E0CCE7D0E004C02297FE010E941E159C
:1000C000C836D107C9F70E940F140C94A5170C94D9
:1000D00000006AE071E08EEA91E00E943C0168EA6B
:1000E00071E08EEA91E00E94640126E040E855E26A
:1000F00060E070E085E592E00C94F6100F931F939A
:10010000CF93DF9300D000D000D0CDB7DEB708EAA0
:1001100011E0F80161918F0140E1CE0101960E944A
:10012000E013BE016F5F7F4F85E592E00E94A5124C
:10013000CE0101960E942D1362E171E085E592E007
:100140000E94B312F1E00E3A1F0719F785E592E01D
:100150000E94BC1226960FB6F894DEBF0FBECDBF2C
:10016000DF91CF911F910F9108950F93CF93DF935C
:1001700000D000D000D0CDB7DEB700E020E040E0F6
:1001800060E080E092E00E94411264E171E0CE0103
:1001900001960E949B1320E137E240E050E0BE014F
:1001A0006F5F7F4F8EEA91E00E94E800CE010196DA
:1001B0000E942D1326960FB6F894DEBF0FBECDBF5A
:1001C000DF91CF910F9108958AEE91E00C942D1359
:1001D000CF92DF92EF92FF920F931F93CF93DF9313
:1001E00000D000D0CDB7DEB76C017B0160E570E0D8
:1001F00029833A834B835C830E946E0DC601069669
:100200000E94950FC60181960E94220CC6018E960F
:100210000E94220C8601045C1F4F69E971E0C8014D
:100220000E949B1384E0D601DB968C93B701C80132
:100230000E94B113F601EC5BFF4F29813A814B819B
:100240005C812083318342835383329710823696B8
:100250001082118212821382359781E080830F9081
:100260000F900F900F90DF91CF911F910F91FF9002
:10027000EF90DF90CF900895EF92FF920F931F932E
:10028000CF93DF931F92CDB7DEB7162F63E281E0E5
:1002900090E079830E945017E12E7981F72E02E0D9
:1002A00010E0F70161917F01C8010E9450170F5FB4
:1002B0001F4F08301105A9F70F90DF91CF911F91C3
:1002C0000F91FF90EF900895EF92FF920F931F937D
:1002D000CF93DF9300D0CDB7DEB781E090E06983A4
:1002E0007A830E94481769817A81833279F47B018D
:1002F00002E010E0C8010E944817F70181937F01D6
:100300000F5F1F4F08301105A9F703C08FEF9FEF54
:1003100002C080E090E00F900F90DF91CF911F918D
:100320000F91FF90EF9008950F9300E020E040E0E0
:1003300060E089E092E00E9441120F910895CF920F
:10034000DF92EF92FF920F9330E0C12CF2E1DF2EAB
:10035000FAE7EF2EF12C4C155D056E057F0540F494
:10036000F694E794D794C7943F5F3630A1F737E00F
:1003700041E04327211102C050E701C050E5242F7E
:1003800030E03595279523700C70202B252BFC0130
:100390002083417041830F91FF90EF90DF90CF90C9
:1003A000089520910802222399F03FB7F8942091F4
:1003B0000802213059F42DB3209306024DB3209149
:1003C0000702209524232DBB3FBF02C030930602B5
:1003D0008CBD9DBD089580910802882361F09FB770
:1003E000F8942091080280910602213019F48DBB07
:1003F0009FBF08958FBF089590E0982F882744E00D
:1004000050E0845F9B4F0C94FA05282F30E02C5F5E
:100410003F4F922F8827860F971F0C94290662E082
:1004200070E00C940502FB01282F30E02C5F3F4F59
:10043000922F8827642F8E0F9F1F0C94D805CF937F
:10044000DF93C82FD62F472F64E070E00E9413027D
:100450004D2F65E070E08C2FDF91CF910C9413024B
:10046000462F62E070E00C941302CF93DF93C82F05
:10047000D62F472F60E170E00E9413024D2F61E1FB
:1004800070E08C2FDF91CF910C9413020F931F9388
:10049000CF93DF9300D01F92CDB7DEB7182F00E0C7
:1004A00021E040E059E06DE370E0CE0101960E944A
:1004B0009F0189819A810E94D10163E070E0812FC0
:1004C0000E9405028B830E94EB018B810F900F909D
:1004D0000F90DF91CF911F910F9108950F931F936C
:1004E000CF93DF9300D0CDB7DEB7182F00E021E027
:1004F00040E059E06DE370E0CE0101960E949F015B
:1005000089819A810E94D10140E150E0612F81E10F
:1005100092E00E94F3076FEF812F0E9430020E9449
:10052000EB010F900F90DF91CF911F910F910895E4
:10053000CF92DF92EF92FF920F931F93CF93DF93AF
:1005400000D0CDB7DEB7182FD62E7A01C22E8FEF8E
:10055000860F8530A8F5812F0E946E0200E021E011
:1005600040E059E06DE370E0CE0101960E949F01EA
:1005700089819A810E94D1014D2D4C2960E070E063
:10058000812F0E941302E114F10411F0B7010AC097
:1005900060910F02709110026F5F7F4F7093100295
:1005A00060930F02812F0E941F0241E050E0612FF3
:1005B00081E192E00E94F3070E94EB0181E001C01B
:1005C00080E00F900F90DF91CF911F910F91FF90DE
:1005D000EF90DF90CF9008950F931F93CF93DF9309
:1005E00000D0CDB7DEB7182F00E021E040E059E0A1
:1005F0006DE370E0CE0101960E949F0189819A818E
:100600000E94D10163E070E0812F0E9405028331D6
:1006100021F00E94EB0180E00AC042E050E0612F2F
:1006200081E192E00E94F3070E94EB0181E00F90CC
:100630000F90DF91CF911F910F910895CF92DF928C
:10064000EF92FF920F931F93CF93DF9300D0CDB71C
:10065000DEB7182F7B016A01FB0180818F3F51F4C7
:1006600081818F3F99F482818F3F81F483818F3F15
:1006700069F430C081110AC0FB018181811106C07B
:100680008281811103C08381882321F1C114D104A7
:1006900009F100E021E040E059E06DE370E0CE01B7
:1006A00001960E949F0189819A810E94D101B70120
:1006B000812F0E94FC01B601812F0E94350244E087
:1006C00050E0612F81E192E00E94F3070E94EB016C
:1006D00081E001C080E00F900F90DF91CF911F91DA
:1006E0000F91FF90EF90DF90CF9008950F931F939D
:1006F000CF93DF9300D0CDB7DEB7182F00E021E015
:1007000040E059E06DE370E0CE0101960E949F0148
:1007100089819A810E94D10148E050E0612F81E1F6
:1007200092E00E94F3070E94EB010F900F90DF917F
:10073000CF911F910F910895BF92CF92DF92EF92C8
:10074000FF920F931F93CF93DF9300D01F92CDB7EB
:10075000DEB7B82E6B017A01413088E0580718F0F7
:10076000E12C98E0F92E00E021E040E059E06DE353
:1007700070E0CE0101960E949F0189819A810E94BA
:10078000D1016B2D81E192E00E9461068C0163E052
:1007900070E08B2D0E9405028B830E94EB018B8100
:1007A000873111F08C3131F40E940D140E151F05A4
:1007B000D0F202C0E12CF12C00E021E040E059E051
:1007C0006DE370E0CE0101960E949F0189819A81BC
:1007D0000E94D1019701A6016B2D81E192E00E9458
:1007E000200740E250E06B2D81E192E00E94F30788
:1007F0008B2D0E940F0284FD22C063E070E08B2DE0
:100800000E940502811108C00E94EB018B2D0E94FD
:100810006E0280E090E01AC00E94EB010E940D146D
:1008200000E021E040E059E06DE370E0CE01019688
:100830000E949F0189819A810E94D101D9CF60E1F4
:100840008B2D0E9430020E94EB01C7010F900F9088
:100850000F90DF91CF911F910F91FF90EF90DF905C
:10086000CF90BF900895AF92BF92CF92DF92EF9258
:10087000FF920F931F93CF93DF9300D0CDB7DEB7D6
:10088000182F5B016A0100E021E040E059E06DE3D0
:1008900070E0CE0101960E949F0189819A810E9499
:1008A000D101612F81E192E00E9495067C010097C1
:1008B000A1F463E070E0812F0E940502843119F1F8
:1008C000882309F121E030E08C3111F420E030E0A0
:1008D000EE24FF24E21AF30A16C0C816D9060CF457
:1008E00076011E141F047CF400E09701A501612F1E
:1008F00081E192E00E94A30740E450E0612F81E192
:1009000092E00E94F3070E94EB01C7010F900F9045
:10091000DF91CF911F910F91FF90EF90DF90CF90DB
:10092000BF90AF9008950F931F93CF93DF9300D0A4
:1009300000D0CDB7DEB7182F00E021E040E059E04D
:100940006DE370E0CE0101960E949F0189819A813A
:100950000E94D101612F81E192E00E9495068B8374
:100960009C830E94EB018B819C810F900F900F90D4
:100970000F90DF91CF911F910F910895EF92FF9209
:100980000F931F93CF93DF9300D0CDB7DEB7182F0F
:100990007B0100E021E040E059E06DE370E0CE0132
:1009A00001960E949F0189819A810E94D10101E0F4
:1009B00021E030E0A701612F81E192E00E94A307CE
:1009C0000E94EB0181E090E00F900F90DF91CF91BA
:1009D0001F910F91FF90EF90089508959F92AF920D
:1009E000BF92CF92DF92EF92FF920F931F93CF931C
:1009F000DF9300D0CDB7DEB7982E6B015A01790195
:100A000000E021E040E059E06DE370E0CE010196A6
:100A10000E949F0189819A810E94D101692D81E103
:100A200092E00E9461068E159F0530F4692D81E1E8
:100A300092E00E9461067C0187019501A601692D63
:100A400081E192E00E94B1060E94EB01C7010F9084
:100A50000F90DF91CF911F910F91FF90EF90DF905A
:100A6000CF90BF90AF909F900895CF92DF92EF927A
:100A7000FF920F931F93CF93DF9300D0CDB7DEB7D4
:100A8000182F7B016A01FB018081811109C08181DE
:100A9000811106C08281811103C083818823F1F016
:100AA000C114D104D9F000E021E040E059E06DE349
:100AB00070E0CE0101960E949F0189819A810E9477
:100AC000D101B701812F0E94FC01B601812F0E9444
:100AD00035020E94EB0181E090E002C080E090E0EE
:100AE0000F900F90DF91CF911F910F91FF90EF909A
:100AF000DF90CF9008950F931F93CF93DF9300D093
:100B0000CDB7DEB7182F00E021E040E059E06DE3FB
:100B100070E0CE0101960E949F0189819A810E9416
:100B2000D10140E250E0612F81E192E00E94F307A1
:100B3000812F0E940F0284FD21C0812F0E940F028D
:100B400083FF09C068E1812F0E9430020E94EB01FF
:100B500080E090E01BC00E94EB010E940D1400E0B9
:100B600021E040E059E06DE370E0CE0101960E9483
:100B70009F0189819A810E94D101DACF60E1812FA2
:100B80000E9430020E94EB0181E090E00F900F90F4
:100B9000DF91CF911F910F9108958EBD00000DB48C
:100BA00007FEFDCF8EB508952A9808952A9A0895D4
:100BB0001F93CF93DF9300D0CDB7DEB7182F6A8392
:100BC00099830E94D40580EF0E94CD059981892FD9
:100BD0000E94CD05812F0E94CD056A81862F0E943B
:100BE000CD050E94D60581E00F900F90DF91CF9147
:100BF0001F910895CF92DF92EF92FF920F931F9370
:100C0000CF93DF93EC017A018B016C01C40ED51EEA
:100C1000CC15DD05A1F00E94D40580EF0E94CD0522
:100C20008D2F0E94CD058C2F0E94CD052196F801B5
:100C300081918F010E94CD050E94D605E9CFC701A1
:100C4000DF91CF911F910F91FF90EF90DF90CF90A8
:100C500008951F93CF93DF931F92CDB7DEB7182F60
:100C600099830E94D4058FE00E94CD059981892F38
:100C70000E94CD05812F0E94CD0580E00E94CD0508
:100C800089830E94D60589810F90DF91CF911F91B2
:100C900008951F93CF93DF93182F60E270E00E94B6
:100CA0000502C82FD0E061E270E0812F0E940502AA
:100CB000DC2FCC279E01282BC901DF91CF911F91FA
:100CC0000895FF920F931F93CF93DF93F62EC0E00A
:100CD000D0E08F2D0E9449068C01009721F08F2DC6
:100CE0000E944906EC01C017D10799F7CE01DF91A8
:100CF000CF911F910F91FF9008951F93CF93DF9392
:100D0000182F66E270E00E940502C82FD0E067E26B
:100D100070E0812F0E940502DC2FCC279E01282B3A
:100D2000C901DF91CF911F910895FF920F931F93F7
:100D3000CF93DF93F62EC0E0D0E08F2D0E947D068A
:100D40008C01009721F08F2D0E947D06EC01C017C9
:100D5000D10799F7CE01DF91CF911F910F91FF90AD
:100D600008956F927F929F92AF92BF92CF92DF923F
:100D7000EF92FF920F931F93CF93DF931F92CDB704
:100D8000DEB7D82E962E3A01590164E270E0892D23
:100D900099830E940502E82EF12C65E270E0892D0E
:100DA0000E940502FE2CEE24E82AE60CF71C9701AF
:100DB00037706D2C9981792E690C711C690C711C2E
:100DC000D301ED91FC91E20FF31FC901800F911F38
:100DD00081309840A0F0C12C48E0D42EC21AD30A2A
:100DE000A601B501CF010E94FA05A8014C195D09C1
:100DF000B5016C0D7D1DF3018081918103C0A801B7
:100E0000B501CF010E94FA05E00EF11E4F2D64E2FC
:100E100070E0892D0E9413024E2D65E270E0892D4D
:100E20000F90DF91CF911F910F91FF90EF90DF9086
:100E3000CF90BF90AF909F907F906F900C941302D3
:100E40000F931F9389019A0140E050E00E94B10680
:100E50001F910F910895CF92DF92EF92FF920F931F
:100E60001F93CF93DF93EC017A018B016C01C40EC9
:100E7000D51ECC15DD05A9F00E94D4058FE00E9497
:100E8000CD058D2F0E94CD058C2F0E94CD0521967A
:100E900080E00E94CD05F80181938F010E94D60564
:100EA000E8CFC701DF91CF911F910F91FF90EF9095
:100EB000DF90CF900895AF92BF92CF92DF92EF92E2
:100EC000FF920F931F93CF93DF9300D0CDB7DEB780
:100ED0005A8349835901E981FA81F7707C01E60E52
:100EE000F11CE60EF11CD70118968D919C91199773
:100EF0008E0F9F1F98012E0F3F1F2130384098F012
:100F0000C12C68E0D62ECE1ADF0AA601B5010E94D8
:100F10002B07A8014C195D09B5016C0D7D1DF7016A
:100F20008085918502C0A801B5010F900F90DF91D7
:100F3000CF911F910F91FF90EF90DF90CF90BF90D6
:100F4000AF900C942B078F929F92AF92BF92CF924B
:100F5000DF92EF92FF920F931F93CF93DF936C0179
:100F6000962E5A017901802E68E270E0892D0E9448
:100F70000502C82FD0E069E270E0892D0E940502C9
:100F8000DC2FCC27C82B87019501AE01692DC60146
:100F90000E945B0781101AC0CE0DDF1D4D2F68E245
:100FA00070E0892D0E9413024C2F69E270E0892DB8
:100FB000DF91CF911F910F91FF90EF90DF90CF9035
:100FC000BF90AF909F908F900C941302DF91CF91C0
:100FD0001F910F91FF90EF90DF90CF90BF90AF9057
:100FE0009F908F900895CF93C62F61E070E08C2F73
:100FF0000E94130261E070E08C2F0E9405028111B3
:10100000F9CFCF9108950F9300E020E040E060E039
:1010100081E292E00E9441120F910895FB0142810A
:10102000538164817581FC0142835383648375839A
:10103000178216820895CF93FB0181918111FDCF14
:10104000FB0180E090E020E030E0CAE0619166239F
:1010500009F12430310564F56E3271F48F3F91054A
:1010600009F034F5DA01A20FB31F12968C932F5FAB
:101070003F4F80E090E0EACFDC01CA9FC001CB9FE8
:10108000900D1124772767FD709560537109860FC5
:10109000971FDCCF8F3F910509F054F424303105C0
:1010A0003CF4FA01E20FF31F828381E090E002C07A
:1010B00080E090E0CF9108950F9300E020E040E0C1
:1010C00060E087E292E00E9441120F910895AF9292
:1010D000BF92CF92DF92EF92FF920F931F93CF9325
:1010E000DF9300D01F92CDB7DEB76C017B010E9469
:1010F0006814F601778366838601085F1F4FB60187
:101100006A5F7F4F42E050E0C8010E94A50E81E077
:1011100090E09A83898342E050E0BE016F5F7F4F89
:10112000C8010E94A50E80E091E09A83898342E085
:1011300050E0BE016F5F7F4FC8010E94A50E1A826A
:10114000198242E050E0BE016F5F7F4FC8010E94EC
:10115000A50E42E050E0BE016F5F7F4FC8010E94C4
:10116000A50E42E050E0BE016F5F7F4FC8010E94B4
:10117000A50E6701F6018081882311F1F7016F0147
:101180008191811115C05601AE18BF081A141B04B5
:1011900094F4AB8241E050E0BE016D5F7F4FC80127
:1011A0000E94A50EA501B701C8010E94A50E03C0AB
:1011B0008E3229F7E8CF7601FFEFEF1AFF0ADACF78
:1011C0001B8241E050E0BE016D5F7F4FC8010E946D
:1011D000A50EE12CFF24F394FA82E98242E050E06C
:1011E000BE016F5F7F4FC8010E94A50EFA82E9829F
:1011F00042E050E0BE016F5F7F4FC8010E94A50E24
:1012000081E090E00F900F900F90DF91CF911F91B0
:101210000F91FF90EF90DF90CF90BF90AF90089527
:101220004F925F926F927F928F929F92AF92BF92F6
:10123000CF92DF92EF92FF920F931F93CF93DF93A2
:10124000CDB7DEB763970FB6F894DEBF0FBECDBF44
:101250007C015B016A010E9468142B013C0187013B
:10126000085F1F4F4501A12CB12CC8010E94450FFA
:101270001816190694F00E946814641975098609F5
:10128000970986169706A806B906D0F062E370E0C3
:1012900080E090E00E949714E8CFF70142815381EB
:1012A00064817581818D928DA38DB48D4817590706
:1012B0006A077B0741F4858D968DC59721F406C09A
:1012C0008FEF9FEFF9C08EEF9FEFF6C0C8010E942D
:1012D000580E0C970CF4EEC04CE050E0BE016F5F6E
:1012E0007F4FC8010E94E20E8B819C81982789273D
:1012F00098279A8B898BF7014681578129813A81FA
:101300004217530711F497FD06C0C8010E94720EE0
:101310008CEF9FEFD1C08F709270892B31F0C80194
:101320000E94720E8BEF9FEFC7C0AF80B884BA24C3
:10133000AB24BA24A114B10419F0E12CF12C23C080
:10134000C8010E94720E8AEF9FEFB6C041E050E0E4
:10135000BE01635F7F4FC8010E94E20E8D8581113F
:101360001BC08D858111F2CFC8010E94B90EC80142
:101370000E94B90EC8010E94B90EC8010E94B90EA0
:10138000FFEFEF1AFF0A8D819E8198278927982702
:10139000E816F906D8F20AC08D859FEF980F9D8751
:1013A0008823F9F2C8010E94B90EF6CFE12CF12C86
:1013B00041E050E0BE016D5E7F4FC8010E94E20E29
:1013C0008B89982F907C61F4882371F08B899FEF33
:1013D000980F9B8B882341F0C8010E94B90EF6CF6D
:1013E000C8010E94B90E1B8A8B898111E1CF42E0AE
:1013F00050E0BE01615F7F4FC8010E94E20E42E0F3
:1014000050E0BE01635F7F4FC8010E94E20EC80139
:101410000E94B90EC8010E94B90EC8010E94B90EFF
:10142000C8010E94B90E42E050E0BE016F5E7F4FDE
:10143000C8010E94E20E8F8598898115914029F498
:101440008D859E858115914019F0812C912C16C0B7
:1014500089899A898115944031F0C8010E94720EE1
:1014600087EF9FEF29C0B6016E5F7F4F44E050E0E9
:10147000C8010E94E20E81E090E01EC089899A892D
:101480009827892798278816990638F4C8010E945A
:10149000B90E2FEF821A920AF1CF8FEFE81AF80AED
:1014A000EA14FB0409F084CFC8010E94720E86EF93
:1014B0009FEF02C08DEF9FEF63960FB6F894DEBFEB
:1014C0000FBECDBFDF91CF911F910F91FF90EF9095
:1014D000DF90CF90BF90AF909F908F907F906F9054
:1014E0005F904F9008958F929F92AF92BF92CF924C
:1014F000DF92EF92FF920F931F93CF93DF9300D071
:1015000000D000D0CDB7DEB78C015B016A010E942C
:101510001B084C01009709F05DC0F801428153811E
:10152000648175818091290290912A02A0912B02F9
:10153000B0912C02481759076A077B0709F44EC07F
:101540000E9468147801F8E0EF0EF11C6F707727A5
:101550007C5FC7010E94180F813009F043C085E904
:1015600091E09A838983F80182819381A481B58176
:101570008B839C83AD83BE8345E350E0BE016F5FE8
:101580007F4FC7010E94990E892B19F4812C912C51
:101590001DC0B501C8010E946708892BB9F3C701B6
:1015A0000E94A10E892B91F333E0A32EB12CA6014A
:1015B00068E873E1C8010E9410094C01F1E0AF1A1C
:1015C000B10821F08F3F2FEF920789F3C7010E94E6
:1015D000840E08C088248394912C04C09EEF892E29
:1015E00099249A94C40126960FB6F894DEBF0FBED4
:1015F000CDBFDF91CF911F910F91FF90EF90DF90C2
:10160000CF90BF90AF909F908F90089525E931E0E3
:10161000FC0131832083FB01428153816481758108
:10162000FC01428353836483758308950F9300E024
:1016300020E040E060E08DE392E00E9441128DE204
:1016400092E00F910C94371281E086270895862F3F
:101650000895DC01ED91FC91048CF58DE02D099548
:1016600091E089270895CF93DF931F92CDB7DEB71E
:101670006983DC01ED91FC910280F381E02D41E072
:1016800050E0BE016F5F7F4F09950F90DF91CF91C2
:10169000089521E0FC018485843009F420E0822F44
:1016A0000895FC019485FB018485981303C081E0B3
:1016B000943009F480E008950F931F93CF93DF9344
:1016C000EC018A018C85843021F00E949C03892BD7
:1016D00039F481E090E09B838A8380E090E001C050
:1016E000C801DF91CF911F910F910895FC0184856E
:1016F000843011F00C94930480E090E00895CF932F
:10170000DF931F92CDB7DEB741E050E0BE016F5FBF
:101710007F4FFC0184850E943304181619061CF4BF
:10172000898190E002C08FEF9FEF0F90DF91CF9102
:101730000895FC0184850C9433040F931F93CF9379
:10174000DF931F92CDB7DEB78C01DC01ED91FC91E8
:101750000480F581E02D0995892B51F0BE016F5F62
:101760007F4FF80184850E94BE04898190E002C009
:101770008FEF9FEF0F90DF91CF911F910F91089501
:10178000FC0184850C94ED04CF92DF92EF92FF92DE
:101790000F931F93CF93DF93CDB7DEB7AF970FB6FD
:1017A000F894DEBF0FBECDBF7C018B016A01CE0174
:1017B00001960E943712CE0109960E94950FCE0124
:1017C0008A960E9437126DE272E0CE0184960E94E2
:1017D000060BBE016C5D7F4FCE0101960E940E0884
:1017E000AE01465D5F4FB801CE0101960E94730ABB
:1017F00081309105C1F4D701ED91FC910484F58508
:10180000E02D85E991E09DA38CA30CA51DA52EA537
:101810003FA50EA31FA328A739A7A601BE016C5D93
:101820007F4FC7010995AF960FB6F894DEBF0FBE84
:10183000CDBFDF91CF911F910F91FF90EF90DF907F
:10184000CF900895FC011382128248EE53E060E0CD
:1018500070E0448355836683778383E391E09183CB
:10186000808384E084870895FC01262F13821282EE
:1018700048EE53E060E070E04483558366837783ED
:1018800083E391E09183808324870895FC0184851C
:10189000843011F00C94460280E00895DF92EF92BC
:1018A000FF920F931F93CF93DF93EC017B018A018B
:1018B0008C85843009F045C0D12C8D2D0E944602C4
:1018C000811102C0DC8607C08B7F8831D9F3D394A5
:1018D00084E0D812F2CF8C85843099F120911001E8
:1018E000309111012F5F3F4F11F420E030EC309325
:1018F000110120931001409110015091110120E03D
:1019000061E00E949802B7016E5F7F4FA8018C854D
:101910000E941E03811103C084E08C8712C0CE0197
:101920000E94460C873151F061E070E080E090E069
:101930000E949714CE010E94460CECCF81E090E00B
:1019400002C080E090E0DF91CF911F910F91FF9056
:10195000EF90DF900895CF92DF92EF92FF92CF93B6
:10196000DF93EC018C85843049F10E9476030E945C
:1019700068146B017C01CE010E94460C8823A1F003
:1019800061E070E080E090E00E9497140E9468148B
:101990006C197D098E099F09683E73408105910588
:1019A00050F38C850E946E02EC85F0E0EE0FFF1F75
:1019B000EB5CFD4F1182108284E08C87DF91CF9128
:1019C000FF90EF90DF90CF900895CF93DF93EC01DD
:1019D0008C858430D1F0CE010E94460C8431A9F070
:1019E000882399F0883189F08C3169F4E881F98194
:1019F0000480F581E02DCE01099521E0892B09F4C1
:101A000020E0822F03C081E001C080E0DF91CF9110
:101A100008950F9300E020E040E060E083E492E06E
:101A20000E9441120F910895CF93DF931F92CDB77B
:101A3000DEB76983DC01ED91FC910280F381E02D3A
:101A400041E050E0BE016F5F7F4F09950F90DF913D
:101A5000CF910895EF92FF920F931F93CF93DF934F
:101A6000CDB7DEB72D970FB6F894DEBF0FBECDBF52
:101A70007C0100E010E0602FCE0101960E94340C42
:101A8000CE0101960E94460C811116C0F7014481D7
:101A9000558120E061E0802F0E949802802F0E94F3
:101AA000EC02F70184819581F801EE0FFF1FEB5CDA
:101AB000FD4F9183808305C00F5F1F4F04301105D8
:101AC000D1F62D960FB6F894DEBF0FBECDBFDF91D5
:101AD000CF911F910F91FF90EF900895FC01138219
:101AE000128287E591E091838083758364830895F2
:101AF000BF92CF92DF92EF92FF920F931F93CF93FB
:101B0000DF93CDB7DEB72D970FB6F894DEBF0FBECB
:101B1000CDBF8C0145E3C42E42E0D42EB12CE12C84
:101B2000F12C6B2DCE0101960E94340CD6012D9123
:101B30003D916D01F8018481958128173907B1F431
:101B4000CE0101960E94460C843169F0CE010196C7
:101B50000E94460C8C3151F4CE0101960E94760B06
:101B6000892B99F003C0EE24E394F12CB394F4E0B4
:101B7000BF12D7CFEF2871F4D801ED91FC9104800A
:101B8000F581E02DC801099505C0CE0101960E949E
:101B9000AB0CECCF2D960FB6F894DEBF0FBECDBFC9
:101BA000DF91CF911F910F91FF90EF90DF90CF9039
:101BB000BF9008957F928F929F92AF92BF92CF92E3
:101BC000DF92EF92FF920F931F93CF93DF93CDB7E6
:101BD000DEB72D970FB6F894DEBF0FBECDBF6C01F8
:101BE0005B014A010E94780D55E3E52E52E0F52E87
:101BF000712C00E010E0672DCE0101960E94340C9C
:101C0000F701219131917F01F60184819581281797
:101C1000390731F4CE0101960E94460C8731C9F094
:101C20007394F4E07F12E7CFC8012D960FB6F894B5
:101C3000DEBF0FBECDBFDF91CF911F910F91FF90FF
:101C4000EF90DF90CF90BF90AF909F908F907F905C
:101C50000895A401B501CE0101960E945C0B080F06
:101C6000191FDECF0F9300E020E040E060E089E440
:101C700092E00E9441120F910895DC01ED91FC91D8
:101C8000008CF18DE02D099425E931E0FC013183D0
:101C90002083FB014189528963897489FC01428355
:101CA0005383648375830895FC018589968908951B
:101CB000FC01818D928D0895CF93DF931F92CDB754
:101CC000DEB76983DC01ED91FC910280F381E02DA8
:101CD00041E050E0BE016F5F7F4F09950F90DF91AB
:101CE000CF910895CF93DF93EC01898D9A8D892B45
:101CF00041F0E881F9810680F781E02DCE01099558
:101D0000F4CFDF91CF910895CF93DF93EC018C85D1
:101D1000843061F00E946E02EC85F0E0EE0FFF1F50
:101D2000EB5CFD4F1182108284E08C87DF91CF91B4
:101D30000895FC01108E178A6E5F7F4F84850C9486
:101D40003505FC0184850C947B05CF93DF93EC0172
:101D50009A018F89988DAB01BC018C850E94EE049D
:101D60002F89388D280F391F388F2F8BDF91CF9116
:101D700008950F931F93CF93DF931F92CDB7DEB7D4
:101D80008C01FC01818D928D892B59F041E050E04E
:101D9000BE016F5F7F4F84850E94330418161906B9
:101DA0001CF08FEF9FEF08C0F801818D928D019795
:101DB000928F818F898190E00F90DF91CF911F9159
:101DC0000F910895CF93DF93EC01898D9A8D009741
:101DD00019F48FEF9FEF10C04817590708F0AC01B6
:101DE0008C850E943304181619069CF7298D3A8DAC
:101DF000281B390B3A8F298FDF91CF910895CF930C
:101E0000DF931F92CDB7DEB7FC01218D328D232BDE
:101E100049F0BE016F5F7F4F84850E94BE048981B7
:101E200090E002C08FEF9FEF0F90DF91CF91089568
:101E3000FF920F931F93CF93DF93EC018B018C855F
:101E40008430E1F4F12C8F2D0E944602811102C0F2
:101E5000FC8606C08831E1F3F39484E0F812F3CFF6
:101E60008C85843059F01E870D871A8E198E20E0DC
:101E7000A80162E00E94980281E001C080E0DF9149
:101E8000CF911F910F91FF9008950F931F93CF93C0
:101E9000DF93CDB7DEB728970FB6F894DEBF0FBE3D
:101EA000CDBF8C01DC01ED91FC910284F385E02D26
:101EB0000995F80184850E9493041816190644F5C3
:101EC00048E050E0BE016F5F7F4FD8011C968C91B7
:101ED0000E94330418161906ECF4BE016F5F7F4FA1
:101EE000C8010F960E944D128D8190E0982F88278F
:101EF0002E81820F911DF801968B858B8F8190E04A
:101F0000982F88272885820F911D928F818F02C07C
:101F100080E090E028960FB6F894DEBF0FBECDBFEC
:101F2000DF91CF911F910F910895FC0113821282CE
:101F300048EE53E060E070E0448355836683778326
:101F400081E691E09183808384E08487CF010F96BE
:101F50000C943712CF92DF92EF92FF920F931F9360
:101F6000CF93DF93CDB7DEB7AF970FB6F894DEBF50
:101F70000FBECDBF7C018B016A01CE0101960E948C
:101F80003712CE0109960E94950FCE018A960E94C3
:101F900037126DE272E0CE0184960E94060BBE01FC
:101FA0006C5D7F4FCE0101960E940E08AE01465D2A
:101FB0005F4FB801CE0101960E94730A81309105EE
:101FC000C1F4D701ED91FC910088F189E02D85E9FC
:101FD00091E09DA38CA30CA51DA52EA53FA50EA346
:101FE0001FA328A739A7A601BE016C5D7F4FC701BB
:101FF0000995AF960FB6F894DEBF0FBECDBFDF9147
:10200000CF911F910F91FF90EF90DF90CF900895A7
:102010000F9300E020E040E060E08FE492E00E9457
:1020200041120F910895FC01818D228D90E0805C1A
:102030009F4F821B91098F7399270895FC01918D01
:10204000828D981731F0828DE80FF11D858D90E01B
:1020500008958FEF9FEF0895FC01918D828D981761
:1020600061F0828DDF01A80FB11D5D968C91928D7C
:102070009F5F9F73928F90E008958FEF9FEF089579
:1020800080EB91E1892B49F080E090E0892B29F0E9
:102090000E94B01181110C9400000895FC01848D00
:1020A000DF01A80FB11DA35ABF4F2C91848D90E082
:1020B00001968F739927848FA689B7892C93A0895D
:1020C000B1898C9180648C93938D848D981306C014
:1020D0000288F389E02D80818F7D80830895CF93DE
:1020E000DF93EC01888D8823C9F0EA89FB89808120
:1020F00085FD05C0A889B9898C9186FD0FC00FB6F2
:1021000007FCF5CF808185FFF2CFA889B9898C9132
:1021100085FFEDCFCE010E944E10E7CFDF91CF912A
:102120000895CF92DF92FF920F931F93CF93DF9387
:102130001F92CDB7DEB76C0181E0D60158968C9323
:1021400058975B969C915B975C968C915C979813E3
:1021500007C05096ED91FC915197808185FD2EC06E
:10216000F601038D10E00F5F1F4F0F731127F02E44
:10217000F601848DF81211C00FB607FCF9CFD60115
:102180005096ED91FC915197808185FFF1CFC6016A
:1021900069830E944E106981EBCF838DE80FF11D9A
:1021A000E35AFF4F6083D6015B960C935B97529680
:1021B000ED91FC915397808180620CC0D6015696B8
:1021C000ED91FC91579760835096ED91FC9151975A
:1021D00080818064808381E090E00F90DF91CF91D7
:1021E0001F910F91FF90DF90CF900895BF92CF92F3
:1021F000DF92EF92FF92CF93DF93EC016A017B01B4
:10220000B22EE889F98982E08083411581EE580772
:1022100061057105A1F060E079E08DE390E0A70130
:1022200096010E94FA14215031094109510956952D
:10223000479537952795211580E1380798F0E8896B
:10224000F989108260E874E88EE190E0A7019601B8
:102250000E94FA14215031094109510956954795B8
:1022600037952795EC85FD853083EE85FF852083A6
:10227000188EEC89FD89B082EA89FB8980818061B2
:102280008083EA89FB89808188608083EA89FB8971
:10229000808180688083EA89FB8980818F7D80834B
:1022A000DF91CF91FF90EF90DF90CF90BF90089596
:1022B0001F920F920FB60F9211242F938F939F931B
:1022C000EF93FF93E0916502F09166028081E091C7
:1022D0006B02F0916C0282FD12C0908180916E02BF
:1022E0008F5F8F7320916F02821751F0E0916E0221
:1022F000F0E0EB5AFD4F958F80936E0201C0808114
:10230000FF91EF919F918F912F910F900FBE0F90A2
:102310001F9018951F920F920FB60F9211242F93B2
:102320003F934F935F936F937F938F939F93AF935D
:10233000BF93EF93FF9385E592E00E944E10FF91CB
:10234000EF91BF91AF919F918F917F916F915F912D
:102350004F913F912F910F900FBE0F901F901895A6
:1023600085E592E00E94131021E0892B09F420E01A
:10237000822F0895109258021092570288EE93E02F
:10238000A0E0B0E08093590290935A02A0935B02C0
:10239000B0935C0285E891E09093560280935502D9
:1023A00085EC90E0909362028093610284EC90E06F
:1023B000909364028093630280EC90E090936602B5
:1023C0008093650281EC90E09093680280936702AD
:1023D00082EC90E090936A028093690286EC90E030
:1023E00090936C0280936B0210926E0210926F02B7
:1023F00010927002109271020895AF92BF92CF9224
:10240000DF92EF92FF920F931F93CF93DF936C01B4
:102410007B01C0E0D0E000E010E0F601EC0FFD1F12
:102420004AE050E06281C7010E9426135C016EE21F
:10243000C7010E94B5128A0D9B1D080F191F219616
:10244000C330D10551F74AE050E0F6016581C7017C
:102450000E942613800F911FDF91CF911F910F9142
:10246000FF90EF90DF90CF90BF90AF90089525E957
:1024700031E0FC01318320831282138214821582A1
:1024800008950F93FC0185E991E091838083628335
:102490004383248305830F910895FB01408151817B
:1024A00062817381FC014283538364837583089541
:1024B00085E991E09093F3028093F2021092F40286
:1024C0001092F5021092F6021092F7020895CF9240
:1024D000DF92EF92FF920F931F93CF93DF936C01E4
:1024E0007A01EB01E60EF71E00E010E0CE15DF05E5
:1024F00061F06991D601ED91FC910190F081E02DA0
:10250000C6010995080F191FF1CFC801DF91CF91BE
:102510001F910F91FF90EF90DF90CF90089561157C
:10252000710581F0DB010D900020E9F7AD0141500C
:102530005109461B570BDC01ED91FC910280F381A0
:10254000E02D099480E090E00895DC01ED91FC918C
:10255000DB0114964D915C9115976D917C910280F1
:10256000F381E02D09940C948F12DC01ED91FC9124
:102570000190F081E02D099467E971E00C948F12CD
:102580008F929F92AF92BF92CF92DF92EF92FF9283
:102590000F931F93CF93DF93CDB7DEB7A1970FB6FD
:1025A000F894DEBF0FBECDBF7C01C42EE52FCB015A
:1025B000D22E19A221E02D1510F02AE0D22E8E0184
:1025C0000F5D1F4F8D2C912CA12CB12C6C2D7E2FCB
:1025D000A50194010E94FA148C2DD29E8019112419
:1025E000015011098A3014F4805D01C0895CF80142
:1025F0008083211531054105510521F0C22EE32FBD
:10260000CA01E4CFB801C7010E948F12A1960FB68C
:10261000F894DEBF0FBECDBFDF91CF911F910F9118
:10262000FF90EF90DF90CF90BF90AF909F908F90F2
:1026300008952115310541F4DC01ED91FC910190E3
:10264000F081E02D642F09940C94C0129A01462F5A
:1026500050E060E070E00C941913FC0180819181DE
:102660000C94BA15CF93DF93EC0188819981009780
:1026700011F00E94BA15198218821D821C821B82D9
:102680001A82DF91CF9108950F931F93CF93DF9319
:10269000EC018B016F5F7F4F888199810E94491601
:1026A000009731F0998388831B830A8381E001C0FE
:1026B00080E0DF91CF911F910F910895CF93DF9329
:1026C000EC0188819981892B29F08A819B81861769
:1026D000970760F4CE010E944413882341F08C8157
:1026E0009D81892B19F4E881F981108281E0DF91C5
:1026F000CF910895EF92FF920F931F93CF93DF93A3
:10270000EC017B018A01BA010E945E13811104C0B1
:10271000CE010E94321307C01D830C83B70188814C
:1027200099810E941C17CE01DF91CF911F910F91CB
:10273000FF90EF900895FC011182108213821282A3
:10274000158214826115710559F0FB01019000207A
:10275000E9F7AF0141505109461B570B0C947A130E
:102760000895CF93DF93EC01FB018617970761F083
:10277000608171816115710529F0448155810E9444
:102780007A1302C00E943213CE01DF91CF910895D7
:10279000CF93DF93EC016115710561F0FB010190AE
:1027A0000020E9F7AF0141505109461B570B0E9429
:1027B0007A1302C00E943213CE01DF91CF910895A7
:1027C0000F931F93CF93DF93CDB7DEB729970FB643
:1027D000F894DEBF0FBECDBF8C01862FF8011182A9
:1027E0001082138212821582148250E0BE016F5F44
:1027F0007F4F90E00E942317BE016F5F7F4FC8019B
:102800000E94C81329960FB6F894DEBF0FBECDBF45
:10281000DF91CF911F910F910895089508950E941F
:10282000BF140E940E140E946900C0E4D0E10E940F
:102830007E002097E1F30E944010F9CF1F920F9283
:102840000FB60F9211242F933F938F939F93AF93C3
:10285000BF938091F9029091FA02A091FB02B0918E
:10286000FC023091F80223E0230F2D3720F401966B
:10287000A11DB11D05C026E8230F0296A11DB11DA3
:102880002093F8028093F9029093FA02A093FB023E
:10289000B093FC028091FD029091FE02A091FF0294
:1028A000B09100030196A11DB11D8093FD0290938C
:1028B000FE02A093FF02B0930003BF91AF919F91DE
:1028C0008F913F912F910F900FBE0F901F901895F1
:1028D0002FB7F8946091F9027091FA028091FB028F
:1028E0009091FC022FBF08953FB7F8948091FD02AC
:1028F0009091FE02A091FF02B091000326B5A89B23
:1029000005C02F3F19F00196A11DB11D3FBF6627DD
:10291000782F892F9A2F620F711D811D911D42E022
:10292000660F771F881F991F4A95D1F70895CF9298
:10293000DF92EF92FF92CF93DF936B017C010E94B5
:102940007414EB01C114D104E104F10489F00E9474
:102950000D140E9474146C1B7D0B683E734090F341
:1029600081E0C81AD108E108F108C851DC4FEACF6C
:10297000DF91CF91FF90EF90DF90CF900895789402
:1029800084B5826084BD84B5816084BD85B5826074
:1029900085BD85B5816085BDEEE6F0E08081816012
:1029A0008083E1E8F0E01082808182608083808112
:1029B00081608083E0E8F0E0808181608083E1EBEA
:1029C000F0E0808184608083E0EBF0E080818160D2
:1029D0008083EAE7F0E08081846080838081826088
:1029E0008083808181608083808180688083109271
:1029F000C1000895A1E21A2EAA1BBB1BFD010DC048
:102A0000AA1FBB1FEE1FFF1FA217B307E407F5079E
:102A100020F0A21BB30BE40BF50B661F771F881F7A
:102A2000991F1A9469F760957095809590959B0110
:102A3000AC01BD01CF010895EE0FFF1F0590F49189
:102A4000E02D0994CF93DF938230910510F482E05A
:102A500090E0E0910303F091040320E030E0A0E077
:102A6000B0E0309739F14081518148175907B8F0EB
:102A70004817590771F482819381109729F01396B2
:102A80009C938E9312972CC090930403809303031E
:102A900027C02115310531F04217530718F0A9015D
:102AA000DB0101C0EF019A01BD01DF010280F3816A
:102AB000E02DD7CF21153105F9F0281B390B243033
:102AC000310580F48A819B816115710521F0FB013C
:102AD0009383828304C09093040380930303FE01D5
:102AE000329644C0FE01E20FF31F8193919322506E
:102AF0003109398328833AC02091010330910203C0
:102B0000232B41F420910201309103013093020301
:102B1000209301032091000130910101211531051D
:102B200041F42DB73EB74091040150910501241B9B
:102B3000350BE0910103F0910203E217F307A0F4D3
:102B40002E1B3F0B2817390778F0AC014E5F5F4F03
:102B50002417350748F04E0F5F1F50930203409330
:102B600001038193919302C0E0E0F0E0CF01DF9197
:102B7000CF910895CF93DF93009709F487C0FC01AC
:102B8000329713821282C0910303D09104032097DD
:102B900081F420813181280F391F809101039091A8
:102BA00002038217930779F5F0930203E093010380
:102BB0006DC0DE0120E030E0AE17BF0750F4129682
:102BC0004D915C9113979D014115510509F1DA0171
:102BD000F3CFB383A28340815181840F951F8A175D
:102BE0009B0771F48D919C911197840F951F02960C
:102BF0009183808312968D919C9113979383828306
:102C00002115310529F4F0930403E09303033EC03A
:102C1000D9011396FC93EE9312974D915D91A40FF9
:102C2000B51FEA17FB0779F480819181840F951F06
:102C30000296D90111969C938E938281938113966B
:102C40009C938E931297E0E0F0E08A819B8100973D
:102C500019F0FE01EC01F9CFCE01029628813981ED
:102C6000820F931F20910103309102032817390727
:102C700069F4309729F4109204031092030302C000
:102C800013821282D0930203C0930103DF91CF918C
:102C90000895A0E0B0E0EFE4F6E10C947217EC01C7
:102CA000CB01209719F40E942215B8C0FE01E60F4F
:102CB000F71F9E0122503109E217F30708F4ACC058
:102CC000D9010D911C91119706171707B8F005301F
:102CD000110508F49FC0A801445051094617570731
:102CE00008F498C002501109061B170B01931193A9
:102CF0006D937C93CF010E94BA158CC05B01A01A22
:102D0000B10A4E01800E911EA0910303B0910403FD
:102D1000612C712C60E070E0109709F449C0A8158F
:102D2000B905C9F5ED90FC901197670142E0C40E1A
:102D3000D11CCA14DB0478F147018A189B0864018E
:102D400042E0C40ED11C1296BC9012971396AC911F
:102D5000B5E0CB16D10440F0B282A3839182808289
:102D6000D9018D939C9309C00E5F1F4F0E0D1F1D3F
:102D7000F90111830083EB2DFA2F6115710531F0F4
:102D8000DB011396FC93EE93129744C0F093040377
:102D9000E09303033FC06D917C911197661677060F
:102DA00008F43B01BD0112960D90BC91A02DB4CF4B
:102DB000609101037091020368157905E9F46816C2
:102DC0007906D0F44091000150910101411551055F
:102DD00041F44DB75EB76091040170910501461B47
:102DE000570BE417F507C0F4F0930203E0930103D7
:102DF000F901918380830EC00E9422157C01009707
:102E000059F0A801BE010E941317CE010E94BA1505
:102E1000C70104C0CE0102C080E090E0CDB7DEB7AC
:102E2000EEE00C948E17FB01DC0102C001900D92C4
:102E300041505040D8F70895FB01DC0101900D92FC
:102E40000020E1F708954532510520F4423010F09A
:102E50000C942E17FB011082CB010895BB27FB01B8
:102E60005527AA27880F991FAA1FA41710F0A41B83
:102E700083955051B9F7A05DAA3308F0A95DA193DD
:102E8000009779F7B111B1931192CB010C945E17B1
:102E9000F999FECF92BD81BDF89A992780B5089522
:102EA000262FF999FECF1FBA92BD81BD20BD0FB666
:102EB000F894FA9AF99A0FBE01960895DC01FC0184
:102EC000672F71917723E1F7329704C07C916D935E
:102ED00070836291AE17BF07C8F308952F923F9297
:102EE0004F925F926F927F928F929F92AF92BF921A
:102EF000CF92DF92EF92FF920F931F93CF93DF93C6
:102F0000CDB7DEB7CA1BDB0B0FB6F894DEBF0FBE22
:102F1000CDBF09942A88398848885F846E847D846F
:102F20008C849B84AA84B984C884DF80EE80FD8071
:102F30000C811B81AA81B981CE0FD11D0FB6F894E7
:102F4000DEBF0FBECDBFED01089510E0CCE7D0E0AD
:102F500004C0FE010E941E152296CE37D107C9F784
:042F6000F894FFCF13
:102F64000000050380000100000090A2DA0F9539EB
:102F740000C03A0074657374002D00666F756E644A
:102F840000300066696E676572726F626F7400006C
:102F9400000000330B5C0B760B7F0B9D0BC00B4EBC
:102FA4000CC40B990BAB0CE50C490B240B270B51F0
:102FB4000B290B00000000140DDA0D2A0D0000008F
:102FC400005C0EA50E580EB90EFF0E720E180F847B
:102FD4000E990EAA0FA10E450FE20E3D0E440E549B
:102FE4000E000000009110671213102C101E106FB9
:102FF4001000000000FD110D0A006E616E00696E84
:0830040066006F7666002E00E5
:00000001FF
