:100000000C9467000C948F000C948F000C948F005C
:100010000C948F000C948F000C948F000C948F0024
:100020000C948F000C948F000C948F000C94F803A8
:100030000C948F000C948F000C948F000C948F0004
:100040000C9418250C948F000C943C210C946E2178
:100050000C948F000C948F000C948F000C948F00E4
:100060000C948F000C948F00000000080002010027
:100070000003040700000000000000000102040863
:100080001020408001020408102001020408102002
:10009000040404040404040402020202020203032E
:1000A0000303030300000000250028002B000000CC
:1000B0000000240027002A002603B1072811A316F8
:1000C000291A1C1CB21D881F9E214C228703112453
:1000D0001FBECFEFD8E0DEBFCDBF11E0A0E0B1E0A2
:1000E000EEE1F9E502C005900D92A83CB107D9F701
:1000F00023E0A8ECB1E001C01D92A53FB207E1F7F3
:1001000010E0CCECD0E004C02297FE010E947429DC
:10011000C83BD107C9F70E9409250C94822C0C9486
:10012000000040E055EA6FEF70E082ED91E00E9440
:10013000DD1F8FED91E00E9485050197029728F45D
:1001400060E08FED91E00E944C0544E050E06BE3ED
:1001500072E08FED91E00E94920790933A028093B3
:10016000390228E730E0309332022093310280EAEE
:100170009FE09093340280933302309336022093B1
:10018000350290933802809337021092C901109281
:10019000C80108950E94F42521E0883C91050CF4E3
:1001A00020E0822F08958F929F92AF92BF92CF92BC
:1001B000DF92EF92FF920E9462254B015C014FEFAC
:1001C00050E060E070E082ED91E00E94DD1F609100
:1001D0003102709132028AEC91E00E94D3038EE0EA
:1001E00090E00E94CA008823D1F360E070E08AECBE
:1001F00091E00E94D3030E9462256B017C01C81824
:10020000D908EA08FB084FEF5FEF6FEF70E082ED6F
:1002100091E00E94DD1F60913302709134028827C3
:1002200077FD8095982F0E9491254FEF5FEF60E05A
:1002300070E082ED91E00E94DD1F609135027091C7
:1002400036027195619571098AEC91E00E94D303A1
:100250006091310270913202882777FD8095982F46
:100260000E9408284B015C016091350270913602B2
:10027000882777FD8095982F0E9408289B01AC0164
:10028000C501B4010E946D274B015C01C701B60195
:100290000E9406289B01AC01C501B4010E94BC2844
:1002A0006B017C0120E030E0A9010E94B82820E029
:1002B00030E040E05FE387FD05C0C701B6010E9462
:1002C000092704C0C701B6010E9408270E94D5274C
:1002D0000E9491254FEF5FEF6FEF70E082ED91E0AC
:1002E0000E94DD1F6091370270913802882777FDE8
:1002F0008095982F0E94912560E070E08AEC91E053
:10030000FF90EF90DF90CF90BF90AF909F908F9035
:100310000C94D303AF92BF92CF92DF92EF92FF92F1
:100320000F931F93CF93DF93CDB7DEB72C970FB604
:10033000F894DEBF0FBECDBF8FED91E00E94100894
:10034000882309F419C12091390230913A0244E01E
:1003500050E06BE372E08FED91E00E948809082F76
:1003600010E00E3F110509F407C10F3F110509F414
:1003700098C0813069F008F456C0823009F47DC01D
:10038000833009F0F9C08FED91E00E946106F4C05E
:1003900081E3C82E82E0D82EE12CF12C8FED91E084
:1003A0000E94C7098F3F2FE7920709F47AC097FD93
:1003B00078C0E0FC05C08F3F910511F00CF071C0D2
:1003C000F601819391936F01FFEFEF1AFF0A24E08A
:1003D000E216F10419F76DE171E0CE0107960E9473
:1003E000202486E0809F7001819FF00C1124C701BA
:1003F000855C9D4F7C01BC01CE0101960E944D247D
:10040000AE01495F5F4FBE016F5F7F4F8FED91E09F
:100410000E945507CE0101960E94B223CE01079695
:100420000E94B2238CC06DE171E0CE0107960E945C
:10043000202486E0809F7001819FF00C1124F70139
:10044000E55CFD4F7F01BF01CE0101960E944D2466
:10045000AE01495F5F4FBE016F5F7F4F8FED91E04F
:100460000E945507CE0101960E94B223CE01079645
:100470000E94B2230E94D30062C08FED91E00E94DF
:10048000C7096C018F3FFFE79F0759F097FD09C02F
:100490008FED91E00E94C7095C018F3F910589F0C3
:1004A00080F061E171E0CE0101960E942024BE013E
:1004B0006F5F7F4F8FED91E00E942007CE01019684
:1004C00059C06DE171E0CE0107960E94202486E0BC
:1004D000809F7001819FF00C1124C701855C9D4FA6
:1004E0007C01BC01CE0101960E944D24AE01495F02
:1004F0005F4FBE016F5F7F4F8FED91E00E94550708
:10050000CE0101960E94B223CE0107960E94B2232B
:100510004FEF5FEF60E070E082ED91E00E94DD1F41
:10052000662777276A197B098AEC91E00E94D3033A
:10053000B601882777FD8095982F0E94912566E265
:1005400071E0CE0107960E942024B701CE010196EA
:100550000E944D24AE01495F5F4FBE016F5F7F4F28
:100560008FED91E00E945507CE0101960E94B223C3
:10057000CE0107960E94B2232C960FB6F894DEBFE8
:100580000FBECDBFDF91CF911F910F91FF90EF90E4
:10059000DF90CF90BF90AF900895FC0180818823B9
:1005A00019F081E0862701C080E0608308958FED17
:1005B00091E00E94BC078530910521F48FEF90E017
:1005C000DC0113C08430910529F480E09FEFA0E0A6
:1005D000B0E00BC0069729F480E090E0AFEFB0E008
:1005E00004C080E095EAAFEFB0E080930A019093F9
:1005F0000B01A0930C01B0930D018FE090E00E94DD
:10060000CA00682F89EC91E00E94CD0281110E94FE
:10061000D30080E190E00E94CA00682F88EC91E04E
:100620000E94CD02882321F08FED91E00E943E05CB
:100630000E948A0140910A0150910B0160910C01C6
:1006400070910D0182ED91E00C94DD1F0F931F93CB
:10065000CF93DF9300D000D000D0CDB7DEB700E05D
:1006600020E040E060E083E592E00E9425226AE21B
:1006700071E08BE392E00E94202463E371E081E467
:1006800092E00E94202461E371E087E492E00E94FE
:10069000202467E371E08DE492E00E94202463E46B
:1006A00071E0CE0101960E94202420E137E240E073
:1006B00050E0BE016F5F7F4F8FED91E00E94EA0432
:1006C000CE0101960E94B22301E010E026E030E066
:1006D00045E050E063E070E082ED91E00E94931FFE
:1006E0000FEF1FEF29E030E048E050E067E070E0F6
:1006F0008AEC91E00E949B0326960FB6F894DEBF29
:100700000FBECDBFDF91CF911F910F9108958BE167
:1007100092E00E94B2238DE492E00E94B22387E42B
:1007200092E00E94B22381E492E00E94B2238BE324
:1007300092E00C94B2230F931F93CF93DF9300D0DA
:10074000CDB7DEB7FC01862F60837183428353836C
:10075000248335831783068361E02A8349830E94BB
:10076000992661E04981842F0E94992661E02A81BF
:10077000822F0F900F90DF91CF911F910F910C94CA
:1007800099261F93CF93DF93EC01162F6695617026
:1007900088810E94D226612F61708A81DF91CF917A
:1007A0001F910C94D2260F931F93CF93DF93EC01EC
:1007B0008E819F81689F8001699F100D789F100D29
:1007C0001124612F661F6627661F70E06F5F7F4FE1
:1007D000CE010E94C103B80117FF03C07195619556
:1007E00071098C81DF91CF911F910F910C9411268B
:1007F0001F920F920FB60F9211242F933F934F9396
:100800005F936F937F938F939F93AF93BF93EF9378
:10081000FF9380915A0287FF05C0109285001092C5
:1008200084001AC020915A02332727FD3095809109
:10083000590290E0281739077CF480915A029927D1
:1008400087FD9095FC01EE0FFF1FE80FF91FE55A99
:10085000FD4F808186FD15C080915A028F5F809385
:100860005A0220915A02332727FD30958091590270
:1008700090E028173907BCF480915A028C305CF163
:1008800012C080915A02992787FD9095FC01EE0FC6
:10089000FF1FE80FF91FE55AFD4F808160E08F735D
:1008A0000E94D226D9CF8091840090918500049631
:1008B00080349C4918F480E49CE905C08091840050
:1008C00090918500049690938900809388008FEF23
:1008D00080935A0238C02091840030918500809125
:1008E0005A02992787FD9095FC01EE0FFF1FE80F34
:1008F000F91FE55AFD4F81819281820F931F9093DA
:1009000089008093880080915A02992787FD9095ED
:10091000FC01EE0FFF1FE80FF91FE55AFD4F808124
:1009200086FF11C080915A02992787FD9095FC019E
:10093000EE0FFF1FE80FF91FE55AFD4F808161E0C0
:100940008F730E94D226FF91EF91BF91AF919F913B
:100950008F917F916F915F914F913F912F910F9068
:100960000FBE0F901F901895CF93CFB7F89480913A
:100970008202811127C0EAE9F0E08491E6E8F0E024
:100980009491E82FF0E0EE0FFF1FE255FF4FA59185
:10099000B4918C91892321F461E08AE00E94D226EF
:1009A00061E08AE00E9499268CB580618CBD8CB58F
:1009B00080648CBD61E08DE00E94992661E08BE04F
:1009C0000E949926809182028F5F80938202CFBF1E
:1009D000CF910895CF92DF92EF92FF920F931F93E2
:1009E000CF93DF9300D000D0CDB7DEB76C017B0191
:1009F00068E779E029833A834B835C830E94811CFA
:100A0000C60106960E94151FC60181960E94351BDD
:100A1000C6018E960E94351B8601045C1F4F66E559
:100A200071E0C8010E94202484E0D601DB968C93FB
:100A3000B701C8010E943624F601EC5BFF4F298103
:100A40003A814B815C812083318342835383329787
:100A5000108236961082118212821382359781E0BD
:100A600080830F900F900F900F90DF91CF911F9187
:100A70000F91FF90EF90DF90CF900895CF93DF9389
:100A8000EC010E946225C85BDF4F688379838A830B
:100A90009B83DF91CF910895FC01ED5BFF4F608355
:100AA000611102C0319710820895EF92FF920F9367
:100AB0001F93CF93DF9300D0CDB7DEB781E090E0F6
:100AC00069837A830E942B2C69817A81833279F43D
:100AD0007B0102E010E0C8010E942B2CF7018193FA
:100AE0007F010F5F1F4F08301105A9F703C08FEF7B
:100AF0009FEF02C080E090E00F900F90DF91CF91C8
:100B00001F910F91FF90EF900895EF92FF920F9336
:100B10001F93CF93DF938C0126E040E855E260E01D
:100B200070E085E493E00E94DA2048EC50E060E059
:100B300070E085E493E00E94492361E084E00E9434
:100B4000992660E08AE00E949926F801ED5BFF4F4C
:100B500080818823F1F078018CE4E80EF11CB70164
:100B6000C8010E945505EC010097B1F40E9462256E
:100B7000F801E85BFF4F6083718382839383B70141
:100B800085E193E00E946219892B41F4C2E0D0E034
:100B900005C0C0E0D0E002C0C1E0D0E0CE01DF91EE
:100BA000CF911F910F91FF90EF900895DF92EF92F8
:100BB000FF920F931F93CF93DF937B01E9018C8109
:100BC0009D814817590789F48B01B8016E197F0977
:100BD0008C819D816817790750F4F801D1908F01BD
:100BE000CE010E940525D81681F380E001C081E086
:100BF000DF91CF911F910F91FF90EF90DF900895BB
:100C00005F926F927F928F929F92AF92BF92CF929C
:100C1000DF92EF92FF920F931F93CF93DF9300D059
:100C200000D000D0CDB7DEB76C015B014A013801BE
:100C30008901E12CF12CE614F704E4F4B801CE01AB
:100C400001960E944D249E012F5F3F4FA401B501E4
:100C5000C6010E94D605582ECE0101960E94B223ED
:100C60000A5F1F4F552011F08E2D05C08FEFE81A37
:100C7000F80AE1CF8FEF26960FB6F894DEBF0FBECD
:100C8000CDBFDF91CF911F910F91FF90EF90DF903B
:100C9000CF90BF90AF909F908F907F906F905F901C
:100CA0000895FC0123AD213021F030F0233031F0E4
:100CB000089585E493E003C08E9601C081960C945C
:100CC0009922CF92DF92EF92FF920F931F93CF93CF
:100CD000DF93CDB7DEB72C970FB6F894DEBF0FBE0B
:100CE000CDBF8C016BE471E0CE0101960E942024FF
:100CF000BE016F5F7F4FC8010E945106CE01019671
:100D00000E94B22361E571E0CE0101960E94202489
:100D1000BE016F5F7F4FC8010E945106CE01019650
:100D20000E94B223B801645C7F4FCE0101960E94FD
:100D30004D24BE016F5F7F4FC8010E945106CE0156
:100D400001960E94B22361E571E0CE0101960E94F6
:100D50002024BE016F5F7F4FC8010E945106CE0163
:100D600001960E94B2237801680186E0C80ED11C6A
:100D700040E1F701E45BFF4F6081CE0107960E94DE
:100D80006E248B859C85019781F463E571E0CE012B
:100D900001960E942024BE016F5F7F4FC8010E9410
:100DA0005106CE0101960E94B223BE01695F7F4FBA
:100DB000CE0101960E944D24BE016F5F7F4FC80196
:100DC0000E945106CE0101960E94B22361E571E0B6
:100DD000CE0101960E942024BE016F5F7F4FC801A3
:100DE0000E945106CE0101960E94B223CE010796C1
:100DF0000E94B2238FEFE81AF80AEC14FD0409F000
:100E0000B7CF65E571E0CE0101960E942024BE01B6
:100E10006F5F7F4FC8010E945106CE0101960E946C
:100E2000B2232C960FB6F894DEBF0FBECDBFDF9174
:100E3000CF911F910F91FF90EF90DF90CF90089589
:100E40000F931F93CF93DF93CDB7DEB72C970FB6D9
:100E5000F894DEBF0FBECDBF8C01CE0107960E9475
:100E60004D2465E571E0CE0107960E94DA24BC01AD
:100E7000CE0101960E944D24BE016F5F7F4FC801D5
:100E80000E945106CE0101960E94B223CE01079620
:100E90000E94B2232C960FB6F894DEBF0FBECDBFD2
:100EA000DF91CF911F910F910895EF92FF920F93D1
:100EB0001F93CF93DF93CDB7DEB72C970FB6F8947F
:100EC000DEBF0FBECDBF8C017A01CE0107960E9416
:100ED0004D2467E571E0CE0107960E94DA24B70140
:100EE0000E94C724BC01CE0101960E944D24BE0180
:100EF0006F5F7F4FC8010E942007CE0101960E94BC
:100F0000B223CE0107960E94B2232C960FB6F89416
:100F1000DEBF0FBECDBFDF91CF911F910F91FF902C
:100F2000EF900895CF93DF93DB0120E030E080E085
:100F300090E02417350794F4CD91DC911197FE01D0
:100F400001900020E9F73197EC1BFD0BE817F9073A
:100F500008F0CF012F5F3F4F1696EBCFDF91CF9177
:100F600008950F9300E020E040E060E083E892E025
:100F70000E9425220F910895CF92DF92EF92FF9267
:100F80000F931F93CF93DF93EC01FC01ED5BFF4FB9
:100F90008081882389F18E010E5B1F4FF8018081CB
:100FA00081112DC00E946225FE01E85BFF4FC080C9
:100FB000D180E280F3806C197D098E099F093497F6
:100FC000C080D180E280F380C616D706E806F90615
:100FD000C8F085E193E00E94C1190197B1F481E066
:100FE000F801808368E779E0CE0106960E94981E9A
:100FF000CE010E943D1C03C086E090E008C084E062
:1010000090E005C083E090E002C085E090E0DF91D1
:10101000CF911F910F91FF90EF90DF90CF900895A7
:10102000DF92EF92FF920F931F93CF93DF93CDB791
:10103000DEB72D970FB6F894DEBF0FBECDBF8C0183
:10104000DC01DB968C91833039F4C80181960E94D3
:10105000BE1B84E0F80183AF7801F2E4EF0EF11CCF
:10106000D701DC90DD2009F1C80106960E94C51E5B
:10107000892BD9F026EC31E03A832983F80147899E
:10108000508D618D728D4B835C836D837E8348E7C9
:1010900059E0BE016F5F7F4FC80181960E94611BBE
:1010A00083E0D801DB968C9346C0F70180818823CA
:1010B00099F17801BEE2EB0EF11CC7010E94891A7A
:1010C0001816190634F1B801CE0101960E94451D8B
:1010D0008B819C81F80191AB80AB8D819E81AF812A
:1010E000B88582AB93ABA4ABB5AB49855A856B850C
:1010F0007C8546AB57AB60AF71AF8D8582AF06A4E0
:10110000F7A5E02D0688F789E02DC701099588230A
:1011100019F0F80113AE0BC085E493E00E94F71FAD
:10112000181619063CF481E0D801DB968C93DD2477
:10113000D39401C0D12C8D2D2D960FB6F894DEBF1F
:101140000FBECDBFDF91CF911F910F91FF90EF9018
:10115000DF900895AF92BF92CF92DF92EF92FF920D
:101160000F931F93CF93DF93CDB7DEB72D970FB6B5
:10117000F894DEBF0FBECDBF5C01FC0183AD8130B2
:1011800021F090F08330E9F15EC041E050E0BE0113
:101190006F5F7F4F85E493E00E944F23892B09F412
:1011A00052C0898190E053C0F501ED5BFF4F808113
:1011B000882309F448C0F50180A991A99C838B83F9
:1011C00082A993A9A4A9B5A98D839E83AF83B8876B
:1011D00046A957A960AD71AD49875A876B877C874F
:1011E00084E691E09A83898382AD8D87CE01019652
:1011F0000E945C1A882339F1CE0101960E94921A4E
:1012000026C0F501ED5BFF4F80818823E1F00E944D
:1012100062256B017C01F8ECCF0ED11CE11CF11CA6
:1012200086E0A80EB11CC5010E94391E8C018F3FBB
:10123000EFEF9E0759F40E9462256C157D058E051F
:101240009F0520F4F0CF8FEF9FEF01C0C8012D96CE
:101250000FB6F894DEBF0FBECDBFDF91CF911F91C7
:101260000F91FF90EF90DF90CF90BF90AF900895D7
:10127000AF92BF92CF92DF92EF92FF920F931F93A4
:10128000CF93DF935C018B017A01FB01CA01860FCA
:10129000971FE817F90711F01192FBCFE114F10441
:1012A00009F1C5010E94AA08EC01CF3F8FEFD807D2
:1012B000C9F0CE010E94D52B892B99F3F801C08388
:1012C000C1E0D0E0C5010E94AA086C018F3FEFEF9A
:1012D0009E0759F00E94D52B892B39F0CE15DF05DA
:1012E00031F403C080E090E008C0CE0106C0F801F0
:1012F000EC0FFD1FC0822196E5CFDF91CF911F91AA
:101300000F91FF90EF90DF90CF90BF90AF90089536
:101310008F929F92AF92BF92CF92DF92EF92FF9205
:101320000F931F93CF93DF93CDB7DEB77C014B01B3
:101330008A01ADB6BEB68DB79EB7821B930B0FB6B2
:10134000F8949EBF0FBE8DBF01966C01A901BC0130
:10135000C7010E943809009739F09401AC01B60129
:10136000C7010E94000601C08EEF0FB6F894BEBE02
:101370000FBEADBEDF91CF911F910F91FF90EF9007
:10138000DF90CF90BF90AF909F908F900895DF92A5
:10139000EF92FF920F931F93CF93DF938C01C801BD
:1013A0000E94AA08EC018F3F2FEF920789F00E945C
:1013B000D52B892B51F4AD9791F7C8010E94AA084B
:1013C000EC01EE24EA94FE2C06C0CD32D105A9F33F
:1013D000EE24E394F12CE097CA30D10518F08FEF9A
:1013E0009FE719C08AE0D82EC8010E94AA08C097BA
:1013F0008A30910548F49E01D29EE001D39ED00D23
:101400001124C80FD91FF0CFCE9DC001CF9D900DE4
:10141000DE9D900D1124DF91CF911F910F91FF90D0
:10142000EF90DF900895CF92DF92EF92FF920F93AB
:1014300030E0C12CF2E1DF2EFAE7EF2EF12C4C1553
:101440005D056E057F0540F4F694E794D794C79444
:101450003F5F3630A1F737E041E04327211102C05A
:1014600050E701C050E5242F30E0359527952370D3
:101470000C70202B252BFC012083417041830F91A0
:10148000FF90EF90DF90CF9008952091810222236A
:1014900099F03FB7F89420918102213059F42DB38F
:1014A00020937F024DB320918002209524232DBBF1
:1014B0003FBF02C030937F028CBD9DBD08958091D7
:1014C0008102882361F09FB7F89420918102809176
:1014D0007F02213019F48DBB9FBF08958FBF0895FF
:1014E00090E0982F882744E050E0845F9B4F0C9455
:1014F000D60E282F30E02C5F3F4F922F8827860F83
:10150000971F0C94050F62E070E00C94790AFB01C0
:10151000282F30E02C5F3F4F922F8827642F8E0FAB
:101520009F1F0C944C0ECF93DF93C82FD62F472FBD
:1015300064E070E00E94870A4D2F65E070E08C2F18
:10154000DF91CF910C94870A462F62E070E00C94F3
:10155000870ACF93DF93C82FD62F472F60E170E023
:101560000E94870A4D2F61E170E08C2FDF91CF91AF
:101570000C94870A0F931F93CF93DF9300D01F9291
:10158000CDB7DEB7182F00E021E040E059E06DE371
:1015900070E0CE0101960E94130A89819A810E940F
:1015A000450A63E070E0812F0E94790A8B830E94D4
:1015B0005F0A8B810F900F900F90DF91CF911F9159
:1015C0000F9108950F931F93CF93DF9300D0CDB762
:1015D000DEB7182F00E021E040E059E06DE370E055
:1015E000CE0101960E94130A89819A810E94450AC0
:1015F00040E150E0612F8BE892E00E94CF106FEF46
:10160000812F0E94A40A0E945F0A0F900F90DF9121
:10161000CF911F910F910895CF92DF92EF92FF9299
:101620000F931F93CF93DF9300D0CDB7DEB7182F62
:10163000D62E7A01C22E8FEF860F8530A8F5812F26
:101640000E94E20A00E021E040E059E06DE370E032
:10165000CE0101960E94130A89819A810E94450A4F
:101660004D2D4C2960E070E0812F0E94870AE11423
:10167000F10411F0B7010AC06091890270918A02E9
:101680006F5F7F4F70938A0260938902812F0E945F
:10169000930A41E050E0612F8BE892E00E94CF1066
:1016A0000E945F0A81E001C080E00F900F90DF91FF
:1016B000CF911F910F91FF90EF90DF90CF90089501
:1016C0000F931F93CF93DF9300D0CDB7DEB7182FC2
:1016D00000E021E040E059E06DE370E0CE010196CA
:1016E0000E94130A89819A810E94450A63E070E092
:1016F000812F0E94790A833121F00E945F0A80E0E5
:101700000AC042E050E0612F8BE892E00E94CF10C7
:101710000E945F0A81E00F900F90DF91CF911F919F
:101720000F910895CF92DF92EF92FF920F931F9344
:10173000CF93DF9300D0CDB7DEB7182F7B016A01BE
:10174000FB0180818F3F51F481818F3F99F4828129
:101750008F3F81F483818F3F69F430C081110AC0CB
:10176000FB018181811106C08281811103C08381C7
:10177000882321F1C114D10409F100E021E040E007
:1017800059E06DE370E0CE0101960E94130A898151
:101790009A810E94450AB701812F0E94700AB60102
:1017A000812F0E94A90A44E050E0612F8BE892E06B
:1017B0000E94CF100E945F0A81E001C080E00F907C
:1017C0000F90DF91CF911F910F91FF90EF90DF90DD
:1017D000CF9008950F931F93CF93DF9300D0CDB791
:1017E000DEB7182F00E021E040E059E06DE370E043
:1017F000CE0101960E94130A89819A810E94450AAE
:1018000048E050E0612F8BE892E00E94CF100E94E8
:101810005F0A0F900F90DF91CF911F910F91089564
:10182000BF92CF92DF92EF92FF920F931F93CF93CD
:10183000DF9300D01F92CDB7DEB7B82E6B017A01CF
:10184000413088E0580718F0E12C98E0F92E00E0CC
:1018500021E040E059E06DE370E0CE0101960E9486
:10186000130A89819A810E94450A6B2D8BE892E0C8
:101870000E943D0F8C0163E070E08B2D0E94790A7D
:101880008B830E945F0A8B81873111F08C3131F498
:101890000E9407250E151F05D0F202C0E12CF12C85
:1018A00000E021E040E059E06DE370E0CE010196F8
:1018B0000E94130A89819A810E94450A9701A60114
:1018C0006B2D8BE892E00E94FC0F40E250E06B2D04
:1018D0008BE892E00E94CF108B2D0E94830A84FD3A
:1018E00022C063E070E08B2D0E94790A811108C04C
:1018F0000E945F0A8B2D0E94E20A80E090E01AC0ED
:101900000E945F0A0E94072500E021E040E059E0C4
:101910006DE370E0CE0101960E94130A89819A81DD
:101920000E94450AD9CF60E18B2D0E94A40A0E9433
:101930005F0AC7010F900F900F90DF91CF911F9119
:101940000F91FF90EF90DF90CF90BF900895AF92EE
:10195000BF92CF92DF92EF92FF920F931F93CF939C
:10196000DF9300D0CDB7DEB7182F5B016A0100E02E
:1019700021E040E059E06DE370E0CE0101960E9465
:10198000130A89819A810E94450A612F8BE892E0AF
:101990000E94710F7C010097A1F463E070E0812F39
:1019A0000E94790A843119F1882309F121E030E09D
:1019B0008C3111F420E030E0EE24FF24E21AF30A27
:1019C00016C0C816D9060CF476011E141F047CF448
:1019D00000E09701A501612F8BE892E00E947F1043
:1019E00040E450E0612F8BE892E00E94CF100E940B
:1019F0005F0AC7010F900F90DF91CF911F910F9158
:101A0000FF90EF90DF90CF90BF90AF9008950F932D
:101A10001F93CF93DF9300D000D0CDB7DEB7182F40
:101A200000E021E040E059E06DE370E0CE01019676
:101A30000E94130A89819A810E94450A612F8BE8CE
:101A400092E00E94710F8B839C830E945F0A8B81BE
:101A50009C810F900F900F900F90DF91CF911F916D
:101A60000F910895EF92FF920F931F93CF93DF93FF
:101A700000D0CDB7DEB7182F7B0100E021E040E0B9
:101A800059E06DE370E0CE0101960E94130A89814E
:101A90009A810E94450A01E021E030E0A701612F10
:101AA0008BE892E00E947F100E945F0A81E090E044
:101AB0000F900F90DF91CF911F910F91FF90EF90BA
:101AC000089508959F92AF92BF92CF92DF92EF92C6
:101AD000FF920F931F93CF93DF9300D0CDB7DEB764
:101AE000982E6B015A01790100E021E040E059E0B5
:101AF0006DE370E0CE0101960E94130A89819A81FC
:101B00000E94450A692D8BE892E00E943D0F8E15D8
:101B10009F0530F4692D8BE892E00E943D0F7C0117
:101B200087019501A601692D8BE892E00E948D0F37
:101B30000E945F0AC7010F900F90DF91CF911F9114
:101B40000F91FF90EF90DF90CF90BF90AF909F905C
:101B50000895CF92DF92EF92FF920F931F93CF934E
:101B6000DF9300D0CDB7DEB7182F7B016A01FB01F0
:101B70008081811109C08181811106C0828181111A
:101B800003C083818823F1F0C114D104D9F000E0AF
:101B900021E040E059E06DE370E0CE0101960E9443
:101BA000130A89819A810E94450AB701812F0E94F8
:101BB000700AB601812F0E94A90A0E945F0A81E083
:101BC00090E002C080E090E00F900F90DF91CF9105
:101BD0001F910F91FF90EF90DF90CF9008950F939A
:101BE0001F93CF93DF9300D0CDB7DEB7182F00E05F
:101BF00021E040E059E06DE370E0CE0101960E94E3
:101C0000130A89819A810E94450A40E250E0612FBF
:101C10008BE892E00E94CF10812F0E94830A84FDFE
:101C200021C0812F0E94830A83FF09C068E1812FB0
:101C30000E94A40A0E945F0A80E090E01BC00E94FC
:101C40005F0A0E94072500E021E040E059E06DE3D3
:101C500070E0CE0101960E94130A89819A810E9448
:101C6000450ADACF60E1812F0E94A40A0E945F0A30
:101C700081E090E00F900F90DF91CF911F910F9135
:101C800008958EBD00000DB407FEFDCF8EB50895FA
:101C90002A9808952A9A08951F93CF93DF9300D02E
:101CA000CDB7DEB7182F6A8399830E94480E80EF64
:101CB0000E94410E9981892F0E94410E812F0E941E
:101CC000410E6A81862F0E94410E0E944A0E81E0D9
:101CD0000F900F90DF91CF911F910895CF93DF93D5
:101CE000EC016CE271E080E090E00E9491250E949E
:101CF000B404229A80918102882399F09FB7F894C6
:101D000080918102813059F48DB380937F022DB38D
:101D100080918002809582238DBB9FBF02C09093EB
:101D20007F0280E58CBD1DBC60E880E090E00E94F1
:101D30004C0E65E58BE190E00E944C0E65E58AE172
:101D400090E00E944C0E80918102882361F09FB741
:101D5000F8942091810280917F02213019F48DBB8B
:101D60009FBF01C08FBF80E090E49983888380E0AB
:101D700090E69987888780E098E49B838A8380E057
:101D800098E69B878A8780E090E59D838C8380E03E
:101D900090E79D878C8780E098E59F838E8380E025
:101DA00098E79F878E87DF91CF910895CF92DF923A
:101DB000EF92FF920F931F93CF93DF93EC017A0181
:101DC0008B016C01C40ED51ECC15DD05A1F00E945F
:101DD000480E80EF0E94410E8D2F0E94410E8C2FE5
:101DE0000E94410E2196F80181918F010E94410EBF
:101DF0000E944A0EE9CFC701DF91CF911F910F9149
:101E0000FF90EF90DF90CF9008951F93CF93DF93D3
:101E10001F92CDB7DEB7182F99830E94480E8FE02E
:101E20000E94410E9981892F0E94410E812F0E94AC
:101E3000410E80E00E94410E89830E944A0E8981F2
:101E40000F90DF91CF911F9108951F93CF93DF9350
:101E5000182F60E270E00E94790AC82FD0E061E29A
:101E600070E0812F0E94790ADC2FCC279E01282B5D
:101E7000C901DF91CF911F910895FF920F931F9396
:101E8000CF93DF93F62EC0E0D0E08F2D0E94250F78
:101E90008C01009721F08F2D0E94250FEC01C017B7
:101EA000D10799F7CE01DF91CF911F910F91FF904C
:101EB00008951F93CF93DF93182F66E270E00E947E
:101EC000790AC82FD0E067E270E0812F0E94790A7A
:101ED000DC2FCC279E01282BC901DF91CF911F91C8
:101EE0000895FF920F931F93CF93DF93F62EC0E0D8
:101EF000D0E08F2D0E94590F8C01009721F08F2D7B
:101F00000E94590FEC01C017D10799F7CE01DF915C
:101F1000CF911F910F91FF9008956F927F929F92A2
:101F2000AF92BF92CF92DF92EF92FF920F931F93E7
:101F3000CF93DF931F92CDB7DEB7D82E962E3A01FE
:101F4000590164E270E0892D99830E94790AE82E94
:101F5000F12C65E270E0892D0E94790AFE2CEE24B6
:101F6000E82AE60CF71C970137706D2C9981792EC1
:101F7000690C711C690C711CD301ED91FC91E20F8D
:101F8000F31FC901800F911F81309840A0F0C12C30
:101F900048E0D42EC21AD30AA601B501CF010E948F
:101FA000D60EA8014C195D09B5016C0D7D1DF3011C
:101FB0008081918103C0A801B501CF010E94D60E96
:101FC000E00EF11E4F2D64E270E0892D0E94870A19
:101FD0004E2D65E270E0892D0F90DF91CF911F911A
:101FE0000F91FF90EF90DF90CF90BF90AF909F90B8
:101FF0007F906F900C94870A0F931F9389019A0129
:1020000040E050E00E948D0F1F910F910895CF92F4
:10201000DF92EF92FF920F931F93CF93DF93EC0128
:102020007A018B016C01C40ED51ECC15DD05A9F01B
:102030000E94480E8FE00E94410E8D2F0E94410E9B
:102040008C2F0E94410E219680E00E94410EF801E3
:1020500081938F010E944A0EE8CFC701DF91CF9193
:102060001F910F91FF90EF90DF90CF900895AF9266
:10207000BF92CF92DF92EF92FF920F931F93CF9375
:10208000DF9300D0CDB7DEB75A8349835901E98188
:10209000FA81F7707C01E60EF11CE60EF11CD70107
:1020A00018968D919C9119978E0F9F1F98012E0F56
:1020B0003F1F2130384098F0C12C68E0D62ECE1A50
:1020C000DF0AA601B5010E940710A8014C195D099D
:1020D000B5016C0D7D1DF7018085918502C0A801B9
:1020E000B5010F900F90DF91CF911F910F91FF904D
:1020F000EF90DF90CF90BF90AF900C9407108F922D
:102100009F92AF92BF92CF92DF92EF92FF920F9386
:102110001F93CF93DF936C01962E5A017901802E85
:1021200068E270E0892D0E94790AC82FD0E069E248
:1021300070E0892D0E94790ADC2FCC27C82B8701FB
:102140009501AE01692DC6010E94371081101AC099
:10215000CE0DDF1D4D2F68E270E0892D0E94870AA9
:102160004C2F69E270E0892DDF91CF911F910F9183
:10217000FF90EF90DF90CF90BF90AF909F908F90A7
:102180000C94870ADF91CF911F910F91FF90EF90F0
:10219000DF90CF90BF90AF909F908F900895CF9396
:1021A000C62F61E070E08C2F0E94870A61E070E02A
:1021B0008C2F0E94790A8111F9CFCF9108950E9644
:1021C00024E1FC0111922A95E9F70895CF93DF935A
:1021D000EC01625F7F4F0E943122CE01DF91CF91EF
:1021E0000895CF93DF93EC016E5E7F4F0E94312202
:1021F000CE01DF91CF910895CF93DF93EC016A5E1A
:102200007F4F0E943122CE01DF91CF910895CF936D
:10221000DF93EC01625E7F4F0E943122CE01DF919D
:10222000CF91089580E3FB0180833296842F8295BD
:102230008F7090E1899F401911244A3014F4405D59
:1022400001C0495C4293882311F0482FEFCF0895D5
:102250000F9300E020E040E060E08BE992E00E9414
:1022600025220F9108950F931F93CF93DF93EC01D5
:10227000FC01ED59FF4F108220ED37E040E050E0C7
:1022800061E070E080E090E00E9496236C837D83A3
:102290008E839F83688379838A839B838E01085B07
:1022A0001F4FC8010E94041E64E470E0C8010E9430
:1022B000981E882381F0FE01EC59FF4F1182108295
:1022C0000E946225CA59DF4F688379838A839B8382
:1022D00081E090E002C080E090E0DF91CF911F911B
:1022E0000F910895CF92DF92EF92FF920F931F9379
:1022F000CF93DF93EC016B011AA21BA21CA21DA2BB
:102300001EA21FA218A619A61AA61BA61CA61DA6C9
:102310001EAA1FAA18AE19AE2AAF3BAF4CAF5DAFD5
:10232000FC01FE96E082F182028313838C01085F38
:102330001F4F86E0F80111928A95E9F7CE010E94BD
:10234000DF1086E0F601D80101900D928A95E1F741
:10235000FE01E95BFF4F8FEF808331971082CE0142
:10236000DF91CF911F910F91FF90EF90DF90CF9071
:102370000C9433116F927F928F929F92AF92BF9283
:10238000CF92DF92EF92FF920F931F93CF93DF9341
:10239000CDB7DEB7AC970FB6F894DEBF0FBECDBF9A
:1023A0007C01862EB42EA52E20E2922ECE0101961F
:1023B0006C01FC01292D11922A95E9F70FEF2FEFFF
:1023C0004FEF6FEF86960E94252286EC91E09AA34C
:1023D00089A389A59AA5ABA5BCA58BA39CA3ADA3F6
:1023E000BEA38701085B1F4F43E450E0BE016F5D51
:1023F0007F4FC8010E94191E019609F4BFC081E0F9
:1024000089838A8386E0782E7B821C82F70164812F
:102410007581868197810E9460296D837E838F8379
:102420009887A986BA8680E890E09C878B874CE1E4
:1024300050E0B601C8010E94251EF601292D119217
:102440002A95E9F7570188E0A80EB11CF501D601DD
:1024500001900D927A94E1F740E150E0B601C80195
:102460000E94251EF60111929A94E9F796E0692ED2
:10247000712C40E250E0B601C8010E94251EF1E037
:102480006F1A7108B1F783E6898392E89A8393E51E
:102490009B838C8385E38D8381E08E838F829DE394
:1024A000988797E099878A8786E0F501DE011B9679
:1024B00001900D928A95E1F78CE0898B8A8B69E512
:1024C00071E0CE0143960E94FF2BF7014385BE01C8
:1024D000675E7F4FC7010E941211F7014485BE015C
:1024E000655E7F4FC7010E941211F7014585BE014D
:1024F000635E7F4FC7010E9412114EE150E0B601AA
:10250000C8010E94251EF3E08F121EC082E389835A
:1025100084E08A83F70196859B8397859C839089C5
:102520009D8391899E8396E39F838887828D898787
:10253000838D8A87848D8B87858D8C874CE050E0D6
:10254000B601C8010E94251E87E3898386E08A833D
:1025500091E09B8393E09C838D838FE08E838AE35D
:102560008F838BE388878FEF898749E050E0B6013E
:10257000C8010E94251EC8010E94211EAC960FB6FC
:10258000F894DEBF0FBECDBFDF91CF911F910F91A9
:10259000FF90EF90DF90CF90BF90AF909F908F9083
:1025A0007F906F9008952F923F924F925F926F921B
:1025B0007F928F929F92AF92BF92CF92DF92EF92D3
:1025C000FF920F931F93CF93DF93CDB7DEB7E397BF
:1025D0000FB6F894DEBF0FBECDBF7C012A013B01D0
:1025E00069010E9462254B015C018701085B1F4F56
:1025F000C8010E94C51E1816190694F00E94622593
:10260000681979098A099B094616570668067906EA
:10261000F0F062E370E080E090E00E949125E8CF66
:1026200042E250E0BE016F5F7F4FC8010E94621E10
:102630008981823031F4F801858996898334910546
:1026400041F019A6C8010E94F21D89A566C18FEF4D
:1026500064C16D817E818F8198850E9460294B01C4
:102660005C01F601608371838283938346E050E0CE
:10267000B701685F7F4FCE014D960E94E92B892BF1
:1026800099F4F70180819181A281B381881699061E
:10269000AA06BB0648F084819581A681B78188157A
:1026A0009905AA05BB0528F4C8010E94F21D80E027
:1026B00034C189899A89AB89BC89F7018687978754
:1026C000A08BB18B3EECC32ED12CC8010E94391EC9
:1026D000F1E0CF1AD108C9F719A6C70182969BA7C6
:1026E0008AA7F701B696FDA7ECA708969FA78EA725
:1026F0003C976F018F9699AB88AB3897FBABEAABF1
:102700005701F6E1AF0EB11C47018EE1880E911C16
:10271000C8010E94D81D181619060CF093CFC801E5
:102720000E94391E8333910509F4CDC0F4F4813041
:102730009105B9F11CF4892B59F3DFC08330910561
:10274000C1F1069709F0D9C0C8010E94391E3C01A9
:1027500044E050E0B401C8010E94621E212C312CDB
:102760007724F4E06F1A71083FC08A33910509F4A9
:102770007EC03CF48533910561F0C69709F43FC0F3
:10278000BCC08B33910509F488C08F3F910501F2DD
:10279000B4C0C8010E94391EC8010E94391E89A711
:1027A000B7CFC8010E94391E44E050E06AA97BA956
:1027B0003AC0C8010E94391E3C0144E050E0B50116
:1027C000C8010E94621E212C312C772494E0691AE2
:1027D0007108261437040CF09BCFC8010E94391EE3
:1027E000EFEF2E1A3E0AF5CF261437040CF090CFE7
:1027F000C8010E94391E8FEF281A380AF5CFC80188
:102800000E94391E782EF701828D811110C0838DB0
:1028100081110DC0848D81110AC0858D811107C081
:1028200044E050E0B601C8010E94621E71CFE8A9E1
:10283000F9A92080318042805380B601CE01839671
:102840000E9431228DA19EA1AFA1B8A5821593054A
:10285000A405B50529F3212C312C721409F458CFA5
:10286000C8010E94391EFFEF2F1A3F0AF6CFC80198
:102870000E94391E44E050E06CA57DA5C8010E946D
:10288000621EF70166A177A180A591A50E9460292B
:1028900066A377A380A791A73BCFC8010E94391EEA
:1028A00044E050E06EA57FA5C8010E94621EF701BA
:1028B00062A573A584A595A50E94602962A773A748
:1028C00084A795A725CFC8010E94391E44E050E097
:1028D0006AA57BA5C8010E94621EF70162A173A1CF
:1028E00084A195A10E94602962A373A384A395A3E8
:1028F00066A777A780AB91AB0BCFC8010E94391EAA
:10290000382E612C712C361409F402CFC8010E94B4
:10291000391EFFEF6F1A7F0AF6CFE3960FB6F894D1
:10292000DEBF0FBECDBFDF91CF911F910F91FF9002
:10293000EF90DF90CF90BF90AF909F908F907F905F
:102940006F905F904F903F902F9008956F927F927D
:102950008F929F92AF92BF92CF92DF92EF92FF92AF
:102960000F931F93CF93DF9300D000D0CDB7DEB786
:102970008C017C0126E4E20EF11CF70170809C01C1
:10298000295B3F4F590133E0731609F4FBC08D59A1
:102990009F4F6C01711026C0F80184819581A6813A
:1029A000B7810196A11DB11D84839583A683B7834A
:1029B0000E946225F801EA59FF4F2081318142814E
:1029C0005381621B730B840B950B28EE33E040E0C0
:1029D00050E00E941F29A90161E0C8010E94BA11BC
:1029E00081E028C0F4E07F1228C0F801848195813D
:1029F000A681B7810196A11DB11D84839583A6830D
:102A0000B7830E946225F801EA59FF4F2081318186
:102A100042815381621B730B840B950B28EE33E0CC
:102A200040E050E00E941F29A90163E0C8010E9414
:102A3000BA1182E0F70180839EC0F1E07F1234C0BA
:102A4000F5018081980126593F4F4901813039F0C5
:102A50000E946225F40160837183828393839E01C7
:102A60002F5F3F4F40E050E0BA01C8010E94D312EF
:102A7000F60180838F3F09F04FC00E946225F40168
:102A80002081318142815381621B730B840B950B32
:102A9000F801FE9620813181428153812617370744
:102AA00048075907C8F167C0F2E07F1264C0F5011A
:102AB0008081980126593F4F4901823039F00E94A8
:102AC0006225F40160837183828393839E012F5F6B
:102AD0003F4F40E050E0BA01C8010E94D312F60116
:102AE00080838F3F09F06EC00E946225F40120812F
:102AF000318142815381621B730B840B950BF8016A
:102B0000FE9620813181428153812617370748077D
:102B1000590708F457C02FC0F6016080F2E06F1229
:102B200023C089819A81AB81BC81F801848395831C
:102B3000A683B7830E946225F801EA59FF4F2081DE
:102B4000318142815381621B730B840B950B28EEFC
:102B500033E040E050E00E941F29A90163E0C80172
:102B60000E94BA11F70160820E946225F40160831D
:102B7000718382839383F60180818F3F19F41082E1
:102B8000F7011082F5017082F70180818330B9F47A
:102B9000C801885B9F4F0E94041EF8014481558143
:102BA000668177814F5F5F4F6F4F7F4F44835583BF
:102BB00066837783EC59FF4F8081918163C080E009
:102BC00090E060C0F6018081853009F055C083E057
:102BD000F701808381E090E0F801EC59FF4F918389
:102BE0008083F80182A193A1A4A1B5A1892B8A2B8E
:102BF0008B2B41F484E893E0A0E0B0E082A393A3A0
:102C0000A4A3B5A3F80186A197A1A0A5B1A5892B7E
:102C10008A2B8B2B61F482A193A1A4A1B5A1B695B7
:102C2000A7959795879586A397A3A0A7B1A7F80125
:102C300042A553A564A575A586A197A1A0A5B1A598
:102C4000452B462B472B51F4AC01BD01440F551FBA
:102C5000661F771F42A753A764A775A7F80186A729
:102C600097A7A0ABB1AB82A593A5A4A5B5A582AB50
:102C700093ABA4ABB5AB78CF863009F075CFF70135
:102C8000108272CF0F900F900F900F90DF91CF9125
:102C90001F910F91FF90EF90DF90CF90BF90AF907A
:102CA0009F908F907F906F900895FB014281538198
:102CB00064817581FC014283538364837583178229
:102CC00016820895CF93FB0181918111FDCFFB0105
:102CD00080E090E020E030E0CAE06191662309F1F5
:102CE0002430310564F56E3271F48F3F910509F09F
:102CF00034F5DA01A20FB31F12968C932F5F3F4F6A
:102D000080E090E0EACFDC01CA9FC001CB9F900D2C
:102D10001124772767FD709560537109860F971FFF
:102D2000DCCF8F3F910509F054F4243031053CF499
:102D3000FA01E20FF31F828381E090E002C080E09D
:102D400090E0CF9108950F9300E020E040E060E034
:102D500081EA92E00E9425220F910895AF92BF92DE
:102D6000CF92DF92EF92FF920F931F93CF93DF9357
:102D700000D01F92CDB7DEB76C017B010E946225A7
:102D8000F601778366838601085F1F4FB6016A5F8D
:102D90007F4F42E050E0C8010E94251E81E090E094
:102DA0009A83898342E050E0BE016F5F7F4FC80184
:102DB0000E94251E80E091E09A83898342E050E0E2
:102DC000BE016F5F7F4FC8010E94251E1A821982C3
:102DD00042E050E0BE016F5F7F4FC8010E94251E98
:102DE00042E050E0BE016F5F7F4FC8010E94251E88
:102DF00042E050E0BE016F5F7F4FC8010E94251E78
:102E00006701F6018081882311F1F7016F0181913B
:102E1000811115C05601AE18BF081A141B0494F492
:102E2000AB8241E050E0BE016D5F7F4FC8010E9460
:102E3000251EA501B701C8010E94251E03C08E32C0
:102E400029F7E8CF7601FFEFEF1AFF0ADACF1B82EE
:102E500041E050E0BE016D5F7F4FC8010E94251E1A
:102E6000E12CFF24F394FA82E98242E050E0BE01B3
:102E70006F5F7F4FC8010E94251EFA82E98242E0FF
:102E800050E0BE016F5F7F4FC8010E94251E81E0A8
:102E900090E00F900F900F90DF91CF911F910F91C5
:102EA000FF90EF90DF90CF90BF90AF9008954F923A
:102EB0005F926F927F928F929F92AF92BF92CF92CA
:102EC000DF92EF92FF920F931F93CF93DF93CDB7D3
:102ED000DEB763970FB6F894DEBF0FBECDBF7C019F
:102EE0005B016A010E9462252B013C018701085F9A
:102EF0001F4F4501A12CB12CC8010E94C51E1816F8
:102F0000190694F00E9462256419750986099709CB
:102F100086169706A806B906D0F062E370E080E056
:102F200090E00E949125E8CFF701428153816481AE
:102F30007581818D928DA38DB48D481759076A07CD
:102F40007B0741F4858D968DC59721F406C08FEFE0
:102F50009FEFF9C08EEF9FEFF6C0C8010E94D81D09
:102F60000C970CF4EEC04CE050E0BE016F5F7F4F59
:102F7000C8010E94621E8B819C819827892798270F
:102F80009A8B898BF7014681578129813A814217B3
:102F9000530711F497FD06C0C8010E94F21D8CEF83
:102FA0009FEFD1C08F709270892B31F0C8010E94C1
:102FB000F21D8BEF9FEFC7C0AF80B884BA24AB245B
:102FC000BA24A114B10419F0E12CF12C23C0C801DA
:102FD0000E94F21D8AEF9FEFB6C041E050E0BE01B3
:102FE000635F7F4FC8010E94621E8D8581111BC0E7
:102FF0008D858111F2CFC8010E94391EC8010E943F
:10300000391EC8010E94391EC8010E94391EFFEFF7
:10301000EF1AFF0A8D819E81982789279827E81645
:10302000F906D8F20AC08D859FEF980F9D878823F7
:10303000F9F2C8010E94391EF6CFE12CF12C41E0D3
:1030400050E0BE016D5E7F4FC8010E94621E8B89F9
:10305000982F907C61F4882371F08B899FEF980FF3
:103060009B8B882341F0C8010E94391EF6CFC8010E
:103070000E94391E1B8A8B898111E1CF42E050E00A
:10308000BE01615F7F4FC8010E94621E42E050E0B6
:10309000BE01635F7F4FC8010E94621EC8010E948B
:1030A000391EC8010E94391EC8010E94391EC8017C
:1030B0000E94391E42E050E0BE016F5E7F4FC801A2
:1030C0000E94621E8F8598898115914029F48D8513
:1030D0009E858115914019F0812C912C16C089890B
:1030E0009A898115944031F0C8010E94F21D87EF42
:1030F0009FEF29C0B6016E5F7F4F44E050E0C801EA
:103100000E94621E81E090E01EC089899A899827FA
:10311000892798278816990638F4C8010E94391E15
:103120002FEF821A920AF1CF8FEFE81AF80AEA1409
:10313000FB0409F084CFC8010E94F21D86EF9FEFC7
:1031400002C08DEF9FEF63960FB6F894DEBF0FBEFF
:10315000CDBFDF91CF911F910F91FF90EF90DF9046
:10316000CF90BF90AF909F908F907F906F905F9027
:103170004F9008958F929F92AF92BF92CF92DF921D
:10318000EF92FF920F931F93CF93DF9300D000D065
:1031900000D0CDB7DEB78C015B016A010E946216D8
:1031A0004C01009709F05DC0F801428153816481B0
:1031B00075818091A3029091A402A091A502B09183
:1031C000A602481759076A077B0709F44EC00E94F8
:1031D00062257801F8E0EF0EF11C6F7077277C5FB5
:1031E000C7010E94981E813009F043C086EC91E02F
:1031F0009A838983F80182819381A481B5818B832D
:103200009C83AD83BE8345E350E0BE016F5F7F4F7B
:10321000C7010E94191E892B19F4812C912C1DC005
:10322000B501C8010E94AE16892BB9F3C7010E94EF
:10323000211E892B91F333E0A32EB12CA60168E85F
:1032400073E1C8010E9457174C01F1E0AF1AB108B1
:1032500021F08F3F2FEF920789F3C7010E94041ED0
:1032600008C088248394912C04C09EEF892E992451
:103270009A94C40126960FB6F894DEBF0FBECDBF58
:10328000DF91CF911F910F91FF90EF90DF90CF9042
:10329000BF90AF909F908F90089544E050E0BC01A4
:1032A00081E090E00C94D60E44E050E0BC0185E053
:1032B00090E00C94D60E44E050E0BC018FE090E02A
:1032C0000C94D60EAF92BF92CF92DF92EF92FF9204
:1032D0000F931F93CF93DF9300D000D000D0CDB7D2
:1032E000DEB76C015B0180911D03811107C08FEE79
:1032F00092E00E94151F81E080931D0387EA92E00F
:10330000F601978386838BE892E00E946E0E80E53B
:1033100090E00E94450A46E050E0B50189E090E067
:103320000E94D60E00E020E040E060E0CE01019671
:103330000E942522CE0103960E945B190E945F0A1B
:1033400010EAE12E1FE0F12E00E010E020E63AEE58
:1033500040E050E0B501F601868197810E9472112C
:1033600026960FB6F894DEBF0FBECDBFDF91CF918A
:103370001F910F91FF90EF90DF90CF90BF90AF9093
:1033800008950F931F93CF93DF9300D000D000D008
:10339000CDB7DEB78C01FC01868197810E94A6140F
:1033A0000197D1F580E590E00E94450AF801668119
:1033B0007781CE0101960E94E610CE0103960E940D
:1033C0005B19F80166817781CE0101960E94FC109D
:1033D000CE0103960E944D19F80166817781CE01D6
:1033E00001960E94F110CE0103960E9454190E948A
:1033F0005F0AF80166817781CE0101960E9407116C
:103400004B815C816D817E81F801428353836483AB
:10341000758381E090E002C080E090E026960FB6D0
:10342000F894DEBF0FBECDBFDF91CF911F910F91FA
:10343000089526EC31E0FC0131832083FB014281B9
:10344000538164817581FC01428353836483758356
:1034500008950F9300E020E040E060E08DE293E00B
:103460000E94252285E193E00F910C941B2281E0BC
:1034700086270895862F0895DC01ED91FC91048C38
:10348000F58DE02D099591E089270895CF93DF937D
:103490001F92CDB7DEB76983DC01ED91FC9102800C
:1034A000F381E02D41E050E0BE016F5F7F4F099551
:1034B0000F90DF91CF91089521E0FC018485843045
:1034C00009F420E0822F0895FC019485FB01848596
:1034D000981303C081E0943009F480E008950F93BD
:1034E0001F93CF93DF93EC018A018C85843021F008
:1034F0000E94100C892B39F481E090E09B838A8331
:1035000080E090E001C0C801DF91CF911F910F9141
:103510000895FC018485843011F00C94070D80E03F
:1035200090E00895CF93DF931F92CDB7DEB741E0CF
:1035300050E0BE016F5F7F4FFC0184850E94A70CA5
:10354000181619061CF4898190E002C08FEF9FEFD6
:103550000F90DF91CF910895FC0184850C94A70C06
:103560000F931F93CF93DF931F92CDB7DEB78C01DC
:10357000DC01ED91FC910480F581E02D0995892B0A
:1035800051F0BE016F5F7F4FF80184850E94320DBC
:10359000898190E002C08FEF9FEF0F90DF91CF9174
:1035A0001F910F910895FC0184850C94610DCF92B9
:1035B000DF92EF92FF920F931F93CF93DF93CDB7DC
:1035C000DEB7AF970FB6F894DEBF0FBECDBF7C015C
:1035D0008B016A01CE0101960E941B22CE01099641
:1035E0000E94151FCE018A960E941B2265E173E09E
:1035F000CE0184960E94191ABE016C5D7F4FCE01E8
:1036000001960E945516AE01465D5F4FB801CE018E
:1036100001960E94BA1881309105C1F4D701ED914D
:10362000FC910484F585E02D86EC91E09DA38CA3AC
:103630000CA51DA52EA53FA50EA31FA328A739A73E
:10364000A601BE016C5D7F4FC7010995AF960FB60D
:10365000F894DEBF0FBECDBFDF91CF911F910F91C8
:10366000FF90EF90DF90CF900895FC0113821282BB
:1036700048EE53E060E070E04483558366837783CF
:1036800084E691E09183808384E084870895FC013F
:10369000262F1382128248EE53E060E070E04483EC
:1036A00055836683778384E691E0918380832487C2
:1036B0000895FC018485843011F00C94BA0A80E0EE
:1036C0000895DF92EF92FF920F931F93CF93DF93B2
:1036D000EC017B018A018C85843009F045C0D12C36
:1036E0008D2D0E94BA0A811102C0DC8607C08B7F33
:1036F0008831D9F3D39484E0D812F2CF8C8584300A
:1037000099F120910E0130910F012F5F3F4F11F47D
:1037100020E030EC30930F0120930E0140910E0118
:1037200050910F0120E061E00E940C0BB7016E5F29
:103730007F4FA8018C850E94920B811103C084E009
:103740008C8712C0CE010E94591B873151F061E075
:1037500070E080E090E00E949125CE010E94591B0C
:10376000ECCF81E090E002C080E090E0DF91CF916B
:103770001F910F91FF90EF90DF900895CF92DF920D
:10378000EF92FF92CF93DF93EC018C85843049F167
:103790000E94EA0B0E9462256B017C01CE010E940F
:1037A000591B8823A1F061E070E080E090E00E9466
:1037B00091250E9462256C197D098E099F09683E3A
:1037C00073408105910550F38C850E94E20AEC85D7
:1037D000F0E0EE0FFF1FEB5DFC4F1182108284E0E2
:1037E0008C87DF91CF91FF90EF90DF90CF9008957D
:1037F000CF93DF93EC018C858430D1F0CE010E9411
:10380000591B8431A9F0882399F0883189F08C31D3
:1038100069F4E881F9810480F581E02DCE010995F4
:1038200021E0892B09F420E0822F03C081E001C050
:1038300080E0DF91CF9108950F9300E020E040E019
:1038400060E083E393E00E9425220F910895CF93D7
:10385000DF931F92CDB7DEB76983DC01ED91FC9158
:103860000280F381E02D41E050E0BE016F5F7F4FA9
:1038700009950F90DF91CF910895EF92FF920F93EA
:103880001F93CF93DF93CDB7DEB72D970FB6F89484
:10389000DEBF0FBECDBF7C0100E010E0602FCE0187
:1038A00001960E94471BCE0101960E94591B81116F
:1038B00016C0F7014481558120E061E0802F0E940D
:1038C0000C0B802F0E94600BF70184819581F80119
:1038D000EE0FFF1FEB5DFC4F9183808305C00F5FF0
:1038E0001F4F04301105D1F62D960FB6F894DEBFA8
:1038F0000FBECDBFDF91CF911F910F91FF90EF9041
:103900000895FC011382128288E891E091838083FC
:10391000758364830895BF92CF92DF92EF92FF92F6
:103920000F931F93CF93DF93CDB7DEB72D970FB6CD
:10393000F894DEBF0FBECDBF8C0145E2C42E43E03C
:10394000D42EB12CE12CF12C6B2DCE0101960E94CE
:10395000471BD6012D913D916D01F8018481958120
:1039600028173907B1F4CE0101960E94591B843102
:1039700069F0CE0101960E94591B8C3151F4CE01A1
:1039800001960E94891A892B99F003C0EE24E394D2
:10399000F12CB394F4E0BF12D7CFEF2871F4D80123
:1039A000ED91FC910480F581E02DC801099505C0D9
:1039B000CE0101960E94BE1BECCF2D960FB6F89457
:1039C000DEBF0FBECDBFDF91CF911F910F91FF9052
:1039D000EF90DF90CF90BF9008957F928F929F924B
:1039E000AF92BF92CF92DF92EF92FF920F931F930D
:1039F000CF93DF93CDB7DEB72D970FB6F894DEBF28
:103A00000FBECDBF6C015B014A010E948B1C55E2C9
:103A1000E52E53E0F52E712C00E010E0672DCE016D
:103A200001960E94471BF701219131917F01F60118
:103A3000848195812817390731F4CE0101960E94BF
:103A4000591B8731C9F07394F4E07F12E7CFC801A6
:103A50002D960FB6F894DEBF0FBECDBFDF91CF918C
:103A60001F910F91FF90EF90DF90CF90BF90AF909C
:103A70009F908F907F900895A401B501CE0101968B
:103A80000E946F1A080F191FDECFBF92CF92DF92EC
:103A9000EF92FF920F931F93CF93DF93CDB7DEB7D3
:103AA0002D970FB6F894DEBF0FBECDBF8C016B0112
:103AB000CB010E948B1C65E2E62E63E0F62EB12C52
:103AC0006B2DCE0101960E94471BF7012191319188
:103AD0007F01F601848195812817390751F5CE01C0
:103AE00001960E94591B873111F08C3111F5CE01DE
:103AF00001960E94891A892BE1F08B819C81F80143
:103B0000938382838D819E81AF81B88584839583E1
:103B1000A683B78349855A856B857C854087518705
:103B20006287738784E691E0918380838D858487A3
:103B300008C0B394F4E0BF12C3CF64E0C8010E9490
:103B4000471BC8012D960FB6F894DEBF0FBECDBF40
:103B5000DF91CF911F910F91FF90EF90DF90CF9069
:103B6000BF9008950F9300E020E040E060E089E31B
:103B700093E00E9425220F910895DC01ED91FC91C4
:103B8000008CF18DE02D099426EC31E0FC013183AD
:103B90002083FB014189528963897489FC01428336
:103BA0005383648375830895FC01858996890895FC
:103BB000FC01818D928D0895CF93DF931F92CDB735
:103BC000DEB76983DC01ED91FC910280F381E02D89
:103BD00041E050E0BE016F5F7F4F09950F90DF918C
:103BE000CF910895CF93DF93EC01898D9A8D892B26
:103BF00041F0E881F9810680F781E02DCE01099539
:103C0000F4CFDF91CF910895CF93DF93EC018C85B2
:103C1000843061F00E94E20AEC85F0E0EE0FFF1FB5
:103C2000EB5DFC4F1182108284E08C87DF91CF9195
:103C30000895FC01108E178A6E5F7F4F84850C9467
:103C4000A90DFC0184850C94EF0DCF93DF93EC015B
:103C50009A018F89988DAB01BC018C850E94620D01
:103C60002F89388D280F391F388F2F8BDF91CF91F7
:103C700008950F931F93CF93DF931F92CDB7DEB7B5
:103C80008C01FC01818D928D892B59F041E050E02F
:103C9000BE016F5F7F4F84850E94A70C181619061E
:103CA0001CF08FEF9FEF08C0F801818D928D019776
:103CB000928F818F898190E00F90DF91CF911F913A
:103CC0000F910895CF93DF93EC01898D9A8D009722
:103CD00019F48FEF9FEF10C04817590708F0AC0197
:103CE0008C850E94A70C181619069CF7298D3A8D11
:103CF000281B390B3A8F298FDF91CF910895CF93ED
:103D0000DF931F92CDB7DEB7FC01218D328D232BBF
:103D100049F0BE016F5F7F4F84850E94320D89811B
:103D200090E002C08FEF9FEF0F90DF91CF91089549
:103D3000FF920F931F93CF93DF93EC018B018C8540
:103D40008430E1F4F12C8F2D0E94BA0A811102C057
:103D5000FC8606C08831E1F3F39484E0F812F3CFD7
:103D60008C85843059F01E870D871A8E198E20E0BD
:103D7000A80162E00E940C0B81E001C080E0DF91AD
:103D8000CF911F910F91FF9008950F931F93CF93A1
:103D9000DF93CDB7DEB728970FB6F894DEBF0FBE1E
:103DA000CDBF8C01DC01ED91FC910284F385E02D07
:103DB0000995F80184850E94070D1816190644F527
:103DC00048E050E0BE016F5F7F4FD8011C968C9198
:103DD0000E94A70C18161906ECF4BE016F5F7F4F06
:103DE000C8010F960E9441228D8190E0982F88276C
:103DF0002E81820F911DF801968B858B8F8190E02B
:103E0000982F88272885820F911D928F818F02C05D
:103E100080E090E028960FB6F894DEBF0FBECDBFCD
:103E2000DF91CF911F910F910895FC0113821282AF
:103E300048EE53E060E070E0448355836683778307
:103E400082E991E09183808384E08487CF010F969B
:103E50000C941B22CF92DF92EF92FF920F931F934D
:103E6000CF93DF93CDB7DEB7AF970FB6F894DEBF31
:103E70000FBECDBF7C018B016A01CE0101960E946D
:103E80001B22CE0109960E94151FCE018A960E9420
:103E90001B2265E173E0CE0184960E94191ABE01CF
:103EA0006C5D7F4FCE0101960E945516AE01465DB6
:103EB0005F4FB801CE0101960E94BA18813091057A
:103EC000C1F4D701ED91FC910088F189E02D86ECD9
:103ED00091E09DA38CA30CA51DA52EA53FA50EA327
:103EE0001FA328A739A7A601BE016C5D7F4FC7019C
:103EF0000995AF960FB6F894DEBF0FBECDBFDF9128
:103F0000CF911F910F91FF90EF90DF90CF90089588
:103F10000F9300E020E040E060E08FE393E00E9438
:103F200025220F910895FC0171836083538342839E
:103F30003583248381E084870895AF92BF92CF9226
:103F4000DF92EF92FF920F931F93CF93DF93EC01D9
:103F50007B016A0189018C85882349F088810E9450
:103F60001126B6018A810E941126B80112C0AA2426
:103F7000AA94B12CB5016E197F0988810E9411267F
:103F8000B5016C197D098A810E941126B501601B5B
:103F9000710B8C810E941126FF82EE82D986C88621
:103FA0001B870A87DF91CF911F910F91FF90EF90B0
:103FB000DF90CF90BF90AF9008958F929F92AF9275
:103FC000BF92CF92DF92EF92FF929A013327852E14
:103FD000912CC62ED12CA401B601FF90EF90DF905A
:103FE000CF90BF90AF909F908F900C949D1FFC013D
:103FF000818D228D90E0805C9F4F821B91098F7391
:1040000099270895FC01918D828D981731F0828D4A
:10401000E80FF11D858D90E008958FEF9FEF0895D3
:10402000FC01918D828D981761F0828DDF01A80FC0
:10403000B11D5D968C91928D9F5F9F73928F90E0E2
:1040400008958FEF9FEF089584E991E2892B49F05D
:1040500080E090E0892B29F00E94942181110C943A
:1040600000000895FC01848DDF01A80FB11DA35A43
:10407000BF4F2C91848D90E001968F739927848F88
:10408000A689B7892C93A089B1898C9180648C937F
:10409000938D848D981306C00288F389E02D80816A
:1040A0008F7D80830895CF93DF93EC01888D8823E3
:1040B000C9F0EA89FB89808185FD05C0A889B98995
:1040C0008C9186FD0FC00FB607FCF5CF808185FF70
:1040D000F2CFA889B9898C9185FFEDCFCE010E94DE
:1040E0003220E7CFDF91CF910895CF92DF92FF92F8
:1040F0000F931F93CF93DF931F92CDB7DEB76C0161
:1041000081E0D60158968C9358975B969C915B976B
:104110005C968C915C97981307C05096ED91FC913A
:104120005197808185FD2EC0F601038D10E00F5F51
:104130001F4F0F731127F02EF601848DF81211C056
:104140000FB607FCF9CFD6015096ED91FC9151972F
:10415000808185FFF1CFC60169830E943220698189
:10416000EBCF838DE80FF11DE35AFF4F6083D6013B
:104170005B960C935B975296ED91FC9153978081DF
:1041800080620CC0D6015696ED91FC9157976083E2
:104190005096ED91FC91519780818064808381E0FD
:1041A00090E00F90DF91CF911F910F91FF90DF90E2
:1041B000CF900895BF92CF92DF92EF92FF92CF936C
:1041C000DF93EC016A017B01B22EE889F98982E074
:1041D0008083411581EE580761057105A1F060E00B
:1041E00079E08DE390E0A70196010E941F292150FC
:1041F000310941095109569547953795279521155C
:1042000080E1380798F0E889F989108260E874E85D
:104210008EE190E0A70196010E941F2921503109EB
:10422000410951095695479537952795EC85FD85A8
:104230003083EE85FF852083188EEC89FD89B0825E
:10424000EA89FB89808180618083EA89FB8980819A
:1042500088608083EA89FB89808180688083EA891D
:10426000FB8980818F7D8083DF91CF91FF90EF90DC
:10427000DF90CF90BF9008951F920F920FB60F92CC
:1042800011242F938F939F93EF93FF93E091550306
:10429000F09156038081E0915B03F0915C0382FD15
:1042A00012C0908180915E038F5F8F7320915F03B6
:1042B000821751F0E0915E03F0E0EB5BFC4F958FCD
:1042C00080935E0301C08081FF91EF919F918F9158
:1042D0002F910F900FBE0F901F9018951F920F9265
:1042E0000FB60F9211242F933F934F935F936F93C9
:1042F0007F938F939F93AF93BF93EF93FF9385E447
:1043000093E00E943220FF91EF91BF91AF919F9176
:104310008F917F916F915F914F913F912F910F906E
:104320000FBE0F901F90189585E493E00E94F71F31
:1043300021E0892B09F420E0822F08951092480390
:104340001092470388EE93E0A0E0B0E08093490329
:1043500090934A03A0934B03B0934C0386EB91E0F8
:10436000909346038093450385EC90E0909352032D
:104370008093510384EC90E0909354038093530313
:1043800080EC90E0909356038093550381EC90E08D
:10439000909358038093570382EC90E090935A03D4
:1043A0008093590386EC90E090935C0380935B03C9
:1043B00010925E0310925F031092600310926103EB
:1043C0000895AF92BF92CF92DF92EF92FF920F9338
:1043D0001F93CF93DF936C017B01C0E0D0E000E03E
:1043E00010E0F601EC0FFD1F4AE050E06281C701CA
:1043F0000E9414235C016EE2C7010E94A7228A0D6D
:104400009B1D080F191F2196C330D10551F74AE0B3
:1044100050E0F6016581C7010E941423800F911FAF
:10442000DF91CF911F910F91FF90EF90DF90CF9090
:10443000BF90AF90089526EC31E0FC0131832083DA
:10444000128213821482158208950F93FC0186EC68
:1044500091E09183808362834383248305830F915A
:10446000089526EC31E0FC0131832083FB0140817B
:10447000518162817381FC0142835383648375831C
:104480000895FB014081518162817381FC01428367
:10449000538364837583089586EC91E09093E303DE
:1044A0008093E2031092E4031092E5031092E60376
:1044B0001092E7030895CF92DF92EF92FF920F934D
:1044C0001F93CF93DF936C017A01EB01E60EF71E89
:1044D00000E010E0CE15DF0561F06991D601ED91A5
:1044E000FC910190F081E02DC6010995080F191F7C
:1044F000F1CFC801DF91CF911F910F91FF90EF9005
:10450000DF90CF9008956115710581F0DB010D906A
:104510000020E9F7AD0141505109461B570BDC0162
:10452000ED91FC910280F381E02D099480E090E010
:104530000895DC01ED91FC91DB0114964D915C91A5
:1045400015976D917C910280F381E02D0994DC0137
:10455000ED91FC910190F081E02D09948F929F9252
:10456000AF92BF92CF92DF92EF92FF920F931F9381
:10457000CF93DF93CDB7DEB7A1970FB6F894DEBF28
:104580000FBECDBF7C01C42EE52FCB01D22E19A2C8
:1045900021E02D1510F02AE0D22E8E010F5D1F4F65
:1045A0008D2C912CA12CB12C6C2D7E2FA50194016A
:1045B0000E941F298C2DD29E8019112401501109AF
:1045C0008A3014F4805D01C0895CF8018083211574
:1045D00031054105510521F0C22EE32FCA01E4CF78
:1045E000B801C7010E948322A1960FB6F894DEBFDE
:1045F0000FBECDBFDF91CF911F910F91FF90EF9034
:10460000DF90CF90BF90AF909F908F90089521152D
:10461000310541F4DC01ED91FC910190F081E02D38
:10462000642F09940C94AE229A01462F50E060E06A
:1046300070E00C9407230F931F93CF93DF93EC014B
:104640000E946225688779878A879B87E881F9813C
:104650000680F781E02DCE01099597FF15C00E94D5
:104660006225088519852A853B85601B710B820BA5
:10467000930B0C811D812E813F816017710782078A
:10468000930720F38FEF9FEFDF91CF911F910F9151
:104690000895FC0144835583668377830895CF9200
:1046A000DF92EF92FF920F931F93CF93DF937C01E2
:1046B0006A01EB0100E010E00C151D0549F0C7018F
:1046C0000E941B2397FD04C089930F5F1F4FF4CFF7
:1046D000C801DF91CF911F910F91FF90EF90DF9074
:1046E000CF900895CF93DF9300D000D0CDB7DEB741
:1046F0009B01AC01611571058105910569F0698324
:104700003A834B835C830E94FD2A29813A814B8145
:104710005C810E94412903C060E070E0CB010F90F2
:104720000F900F900F90DF91CF910895CF92DF926D
:10473000EF92FF926B017C01621773078407950764
:1047400064F4CA01B9016C197D098E099F090E94A0
:1047500072236C0D7D1D8E1D9F1DFF90EF90DF90CD
:10476000CF900895FC01808191810C941F2ACF93F2
:10477000DF93EC0188819981009711F00E941F2A34
:10478000198218821D821C821B821A82DF91CF91AE
:1047900008950F931F93CF93DF93EC018B016F5F0D
:1047A0007F4F888199810E940B2B009731F099836C
:1047B00088831B830A8381E001C080E0DF91CF9171
:1047C0001F910F910895CF93DF93EC018881998118
:1047D000892B29F08A819B818617970760F4CE0187
:1047E0000E94C923882341F08C819D81892B19F473
:1047F000E881F981108281E0DF91CF910895EF92F5
:10480000FF920F931F93CF93DF93EC017B018A01FB
:10481000BA010E94E323811104C0CE010E94B72394
:1048200007C01D830C83B701888199810E94FF2BEB
:10483000CE01DF91CF911F910F91FF90EF900895DE
:10484000FC0111821082138212821582148261157A
:10485000710559F0FB0101900020E9F7AF014150CB
:104860005109461B570B0C94FF230895CF93DF93F8
:10487000EC01FB018617970761F06081718161157A
:10488000710529F0448155810E94FF2302C00E94D6
:10489000B723CE01DF91CF910895FC0111821082E0
:1048A00013821282158214820C943624CF93DF93E4
:1048B000EC016115710561F0FB0101900020E9F741
:1048C000AF0141505109461B570B0E94FF2302C004
:1048D0000E94B723CE01DF91CF9108950F931F93CC
:1048E000CF93DF93CDB7DEB729970FB6F894DEBF2D
:1048F0000FBECDBF8C01862FF8011182108213826A
:1049000012821582148250E0BE016F5F7F4F90E0EB
:104910000E94062CBE016F5F7F4FC8010E94562483
:1049200029960FB6F894DEBF0FBECDBFDF91CF91B1
:104930001F910F910895EF92FF920F931F93CF93C2
:10494000DF93EC017B010C811D816115710511F470
:1049500080E016C04115510591F0040F151FB801F4
:104960000E94E3238823A1F3288139818C819D81D2
:10497000B701820F931F0E94FF2B1D830C8381E0E0
:10498000DF91CF911F910F91FF90EF900895CF93FA
:10499000DF93EC01FB0144815581608171810E94AC
:1049A0009B24811103C0CE010E94B723CE01DF9169
:1049B000CF910895CF93DF93EC016115710569F0F4
:1049C000FB0101900020E9F7AF0141505109461B5E
:1049D000570B0E949B24811103C0CE010E94B72374
:1049E000CE01DF91CF910895FC01248135816217BA
:1049F000730748F480819181009729F0FC01E60F4C
:104A0000F71F8081089580E008950C94F4240895A0
:104A100008950E94B9250E9408250E949100C4E2D1
:104A2000D0E20E94D7022097E1F30E942420F9CF20
:104A30001F920F920FB60F9211242F933F938F93D3
:104A40009F93AF93BF938091E9039091EA03A09164
:104A5000EB03B091EC033091E80323E0230F2D37F3
:104A600020F40196A11DB11D05C026E8230F029672
:104A7000A11DB11D2093E8038093E9039093EA03FD
:104A8000A093EB03B093EC038091ED039091EE03C0
:104A9000A091EF03B091F0030196A11DB11D809389
:104AA000ED039093EE03A093EF03B093F003BF9157
:104AB000AF919F918F913F912F910F900FBE0F90CB
:104AC0001F9018952FB7F8946091E9037091EA034D
:104AD0008091EB039091EC032FBF08953FB7F894BA
:104AE0008091ED039091EE03A091EF03B091F0035C
:104AF00026B5A89B05C02F3F19F00196A11DB11D39
:104B00003FBF6627782F892F9A2F620F711D811D55
:104B1000911D42E0660F771F881F991F4A95D1F7B4
:104B20000895CF92DF92EF92FF92CF93DF936B01C4
:104B30007C010E946E25EB01C114D104E104F10453
:104B400089F00E9407250E946E256C1B7D0B683E34
:104B5000734090F381E0C81AD108E108F108C85108
:104B6000DC4FEACFDF91CF91FF90EF90DF90CF90B5
:104B70000895789484B5826084BD84B5816084BDD5
:104B800085B5826085BD85B5816085BDEEE6F0E0C6
:104B9000808181608083E1E8F0E010828081826022
:104BA0008083808181608083E0E8F0E080818160A3
:104BB0008083E1EBF0E0808184608083E0EBF0E0D3
:104BC000808181608083EAE7F0E080818460808377
:104BD0008081826080838081816080838081806821
:104BE00080831092C10008958E3008F08E50877037
:104BF0002091100190E4299F90011124822B809331
:104C00007C0080917A00806480937A0080917A00A1
:104C100086FDFCCF809178002091790090E0922B66
:104C200008951F93CF93DF93182FEB0161E00E944B
:104C30009926209711F460E004C0CF3FD10539F4E4
:104C400061E0812FDF91CF911F910C94D226E12F4B
:104C5000F0E0E859FF4FE491E330F9F048F4E13037
:104C6000B9F0E230A1F584B5806284BDC8BD34C01E
:104C7000E730E9F0E83019F1E43049F5809180003F
:104C8000806280938000D0938B00C0938A0024C000
:104C900084B5806884BDC7BD1FC0809180008068D6
:104CA00080938000D0938900C093880015C08091C4
:104CB000B00080688093B000C093B3000DC08091B5
:104CC000B00080628093B000C093B40005C0C038CB
:104CD000D1050CF0B5CFAFCFDF91CF911F910895E3
:104CE000833081F028F4813099F08230A1F008956A
:104CF0008730A9F08830B9F08430D1F480918000F9
:104D00008F7D03C0809180008F778093800008950D
:104D100084B58F7702C084B58F7D84BD089580915E
:104D2000B0008F7703C08091B0008F7D8093B0007A
:104D30000895CF93DF9390E0FC01E458FF4F249156
:104D4000FC01E057FF4F8491882349F190E0880FE0
:104D5000991FFC01E255FF4FA591B4918C559F4FCF
:104D6000FC01C591D4919FB7611108C0F8948C9152
:104D7000209582238C93888182230AC0623051F46B
:104D8000F8948C91322F309583238C938881822BD9
:104D9000888304C0F8948C91822B8C939FBFDF9101
:104DA000CF9108950F931F93CF93DF931F92CDB7A9
:104DB000DEB7282F30E0F901E859FF4F8491F9015F
:104DC000E458FF4F1491F901E057FF4F049100237D
:104DD000C9F0882321F069830E9470266981E02F41
:104DE000F0E0EE0FFF1FEC55FF4FA591B4919FB778
:104DF000F8948C91611103C01095812301C0812B1F
:104E00008C939FBF0F90DF91CF911F910F910895C9
:104E10005058BB27AA270ED071C162D130F067D19C
:104E200020F031F49F3F11F41EF457C10EF4E095C9
:104E3000E7FB4DC1E92F73D180F3BA1762077307FF
:104E40008407950718F071F49EF58BC10EF4E09578
:104E50000B2EBA2FA02D0B01B90190010C01CA0134
:104E6000A0011124FF27591B99F0593F50F4503EDF
:104E700068F11A16F040A22F232F342F4427585FD1
:104E8000F3CF469537952795A795F0405395C9F7E9
:104E90007EF41F16BA0B620B730B840BBAF09150A1
:104EA000A1F0FF0FBB1F661F771F881FC2F70EC040
:104EB000BA0F621F731F841F48F487957795679513
:104EC000B795F7959E3F08F0B3CF9395880F08F0FC
:104ED0009927EE0F9795879508950CD00FC107D1AC
:104EE00040F0FED030F021F45F3F19F0F0C05111D6
:104EF00039C1F3C014D198F39923C9F35523B1F301
:104F0000951B550BBB27AA2762177307840738F038
:104F10009F5F5F4F220F331F441FAA1FA9F333D097
:104F20000E2E3AF0E0E830D091505040E695001C4B
:104F3000CAF729D0FE2F27D0660F771F881FBB1F07
:104F4000261737074807AB07B0E809F0BB0B802DE1
:104F5000BF01FF2793585F4F2AF09E3F510568F02D
:104F6000B6C000C15F3FECF3983EDCF386957795C1
:104F70006795B795F7959F5FC9F7880F911D96952F
:104F8000879597F90895E1E0660F771F881FBB1F8B
:104F9000621773078407BA0720F0621B730B840B38
:104FA000BA0BEE1F88F7E095089504D06894B1110C
:104FB000D9C00895BCD088F09F5790F0B92F992799
:104FC000B751A0F0D1F0660F771F881F991F1AF014
:104FD000BA95C9F712C0B13081F0C3D0B1E00895DD
:104FE000C0C0672F782F8827B85F39F0B93FCCF35E
:104FF000869577956795B395D9F73EF4909580950A
:10500000709561957F4F8F4F9F4F0895E89409C029
:1050100097FB3EF490958095709561957F4F8F4FEB
:105020009F4F9923A9F0F92F96E9BB279395F69501
:10503000879577956795B795F111F8CFFAF4BB0F7F
:1050400011F460FF1BC06F5F7F4F8F4F9F4F16C0E3
:10505000882311F096E911C0772321F09EE8872F6D
:10506000762F05C0662371F096E8862F70E060E029
:105070002AF09A95660F771F881FDAF7880F9695A2
:10508000879597F90895990F0008550FAA0BE0E846
:10509000FEEF16161706E807F907C0F012161306FA
:1050A000E407F50798F0621B730B840B950B39F43A
:1050B0000A2661F0232B242B252B21F408950A26A0
:1050C00009F4A140A6958FEF811D811D089597F9E0
:1050D0009F6780E870E060E008959FEF80EC08959E
:1050E00000240A94161617061806090608950024C7
:1050F0000A9412161306140605060895092E039441
:10510000000C11F4882352F0BB0F40F4BF2B11F4B4
:1051100060FF04C06F5F7F4F8F4F9F4F089557FD13
:105120009058440F551F59F05F3F71F04795880F15
:1051300097FB991F61F09F3F79F0879508951216AC
:1051400013061406551FF2CF4695F1DF08C0161658
:1051500017061806991FF1CF869571056105089409
:105160000895E894BB2766277727CB0197F9089520
:105170008ADF08F48FEF08950BD0C0CFB1DF28F09D
:10518000B6DF18F0952309F0A2CFA7CF1124EACFFC
:10519000C6DFA0F3959FD1F3950F50E0551F629F96
:1051A000F001729FBB27F00DB11D639FAA27F00D80
:1051B000B11DAA1F649F6627B00DA11D661F829FA7
:1051C0002227B00DA11D621F739FB00DA11D621F8C
:1051D000839FA00D611D221F749F3327A00D611DA9
:1051E000231F849F600D211D822F762F6A2F11248B
:1051F0009F5750408AF0E1F088234AF0EE0FFF1FDE
:10520000BB1F661F771F881F91505040A9F79E3F14
:10521000510570F05CCFA6CF5F3FECF3983EDCF316
:10522000869577956795B795F795E7959F5FC1F751
:10523000FE2B880F911D9695879597F90895A1E209
:105240001A2EAA1BBB1BFD010DC0AA1FBB1FEE1F00
:10525000FF1FA217B307E407F50720F0A21BB30B4B
:10526000E40BF50B661F771F881F991F1A9469F7C7
:1052700060957095809590959B01AC01BD01CF0123
:105280000895052E97FB1EF400940E94582957FD9F
:1052900007D00E941F2907FC03D04EF40C94582914
:1052A00050954095309521953F4F4F4F5F4F089552
:1052B00090958095709561957F4F8F4F9F4F089582
:1052C00069279627692778278727782708950E94D6
:1052D0007829A59F900DB49F900DA49F800D911DDE
:1052E00011240895EE0FFF1F0590F491E02D09940D
:1052F000A29FB001B39FC001A39F700D811D112417
:10530000911DB29F700D811D1124911D0895CF93A1
:10531000DF938230910510F482E090E0E091F30396
:10532000F091F40320E030E0A0E0B0E0309739F1F4
:105330004081518148175907B8F04817590771F44F
:1053400082819381109729F013969C938E931297E4
:105350002CC09093F4038093F30327C021153105EB
:1053600031F04217530718F0A901DB0101C0EF012A
:105370009A01BD01DF010280F381E02DD7CF211515
:105380003105F9F0281B390B2430310580F48A816E
:105390009B816115710521F0FB019383828304C019
:1053A0009093F4038093F303FE01329644C0FE0110
:1053B000E20FF31F8193919322503109398328839F
:1053C0003AC02091F1033091F203232B41F4209154
:1053D0000201309103013093F2032093F1032091F5
:1053E0000001309101012115310541F42DB73EB77F
:1053F0004091040150910501241B350BE091F1030C
:10540000F091F203E217F307A0F42E1B3F0B2817CD
:10541000390778F0AC014E5F5F4F2417350748F02D
:105420004E0F5F1F5093F2034093F10381939193CA
:1054300002C0E0E0F0E0CF01DF91CF910895CF937B
:10544000DF93009709F487C0FC0132971382128220
:10545000C091F303D091F403209781F4208131812E
:10546000280F391F8091F1039091F203821793075F
:1054700079F5F093F203E093F1036DC0DE0120E0D3
:1054800030E0AE17BF0750F412964D915C91139720
:105490009D014115510509F1DA01F3CFB383A283D0
:1054A00040815181840F951F8A179B0771F48D915C
:1054B0009C911197840F951F029691838083129679
:1054C0008D919C911397938382832115310529F443
:1054D000F093F403E093F3033EC0D9011396FC93D9
:1054E000EE9312974D915D91A40FB51FEA17FB073C
:1054F00079F480819181840F951F0296D9011196CC
:105500009C938E938281938113969C938E93129792
:10551000E0E0F0E08A819B81009719F0FE01EC0148
:10552000F9CFCE01029628813981820F931F2091F5
:10553000F1033091F2032817390769F4309729F401
:105540001092F4031092F30302C013821282D093DC
:10555000F203C093F103DF91CF9108958F929F9250
:10556000AF92BF92CF92DF92EF92FF92CF93DF93F1
:10557000EC01688179818A819B81611571058105C2
:10558000910521F464E279ED8BE597E02DE133EFAD
:1055900041E050E00E94412949015A019B01AC01C0
:1055A000A7EAB1E40E9467296B017C01ACEEB4EF7D
:1055B000A50194010E94462CC60ED71EE81EF91EB6
:1055C000F7FE06C081E0C81AD108E10880E8F80AB1
:1055D000C882D982EA82FB82C701B6019F77DF9138
:1055E000CF91FF90EF90DF90CF90BF90AF909F90C2
:1055F0008F9008950E94AE2A089586E091E00E945F
:10560000AE2A089560930601709307018093080104
:10561000909309010895A0E0B0E0E1E1FBE20C9471
:105620004F2CEC01CB01209719F40E948729B8C0B8
:10563000FE01E60FF71F9E0122503109E217F30722
:1056400008F4ACC0D9010D911C91119706171707EA
:10565000B8F00530110508F49FC0A8014450510965
:105660004617570708F498C002501109061B170B7C
:10567000019311936D937C93CF010E941F2A8CC0DC
:105680005B01A01AB10A4E01800E911EA091F30396
:10569000B091F403612C712C60E070E0109709F474
:1056A00049C0A815B905C9F5ED90FC90119767019F
:1056B00042E0C40ED11CCA14DB0478F147018A18F9
:1056C0009B08640142E0C40ED11C1296BC90129754
:1056D0001396AC91B5E0CB16D10440F0B282A3830F
:1056E00091828082D9018D939C9309C00E5F1F4FD8
:1056F0000E0D1F1DF90111830083EB2DFA2F61158B
:10570000710531F0DB011396FC93EE93129744C0C0
:10571000F093F403E093F3033FC06D917C911197F4
:105720006616770608F43B01BD0112960D90BC91F8
:10573000A02DB4CF6091F1037091F2036815790543
:10574000E9F468167906D0F4409100015091010106
:105750004115510541F44DB75EB760910401709158
:105760000501461B570BE417F507C0F4F093F2034D
:10577000E093F103F901918380830EC00E94872991
:105780007C01009759F0A801BE010E94F62BCE01C2
:105790000E941F2AC70104C0CE0102C080E090E031
:1057A000CDB7DEB7EEE00C946B2C911106C08053A0
:1057B0008A5010F0865C06C00895992788270895BE
:1057C00085FDFBCF80629111F8CF81568A51E0F7B9
:1057D0000895FB01DC0104C08D910190801921F432
:1057E00041505040C8F7881B990B0895FB01DC011C
:1057F00002C001900D9241505040D8F70895FB012E
:10580000DC0101900D920020E1F708954532510529
:1058100020F4423010F00C94112CFB011082CB01CB
:105820000895BB27FB015527AA27880F991FAA1F98
:10583000A41710F0A41B83955051B9F7A05DAA33AB
:1058400008F0A95DA193009779F7B111B193119276
:10585000CB010C94332CF999FECF92BD81BDF89AFF
:10586000992780B50895DC01FC01672F719177239A
:10587000E1F7329704C07C916D9370836291AE170B
:10588000BF07C8F30895B7FF0C9467290E946729E2
:10589000821B930B08952F923F924F925F926F92CB
:1058A0007F928F929F92AF92BF92CF92DF92EF92B0
:1058B000FF920F931F93CF93DF93CDB7DEB7CA1B31
:1058C000DB0B0FB6F894DEBF0FBECDBF09942A885C
:1058D000398848885F846E847D848C849B84AA8404
:1058E000B984C884DF80EE80FD800C811B81AA8191
:1058F000B981CE0FD11D0FB6F894DEBF0FBECDBF5C
:10590000ED01089510E0CCECD0E004C0FE010E944F
:0E59100074292296CE3CD107C9F7F894FFCF38
:10591E000000F5038000010000000000FF0000C041
:10592E00016261642D636F6D6D616E6400726563FB
:10593E00656976656400656E64007374726F6B657D
:10594E000072657365740066696E676572726F6268
:10595E006F74004E41524653545200666F756E641A
:10596E00003A0030000A002D0057495A6E65740047
:10597E0000000000461A6F1A891A921AB01AD31A2A
:10598E00611BD71AAC1ABE1BF81B5C1A371A3A1ACF
:10599E00641A3C1A00000000271CED1C3D1C000080
:1059AE000000DC1D251ED81D391E7F1EF21D981EFF
:1059BE00041E191E2A1F211EC51E621EBD1DC41DDA
:1059CE00D41D0000000075205B22F71F102002205E
:0859DE00532000000000E1214C
:00000001FF
