:100000000C9465000C948D000C948D000C948D0064
:100010000C948D000C948D000C948D000C948D002C
:100020000C948D000C948D000C948D000C948D001C
:100030000C948D000C948D000C948D000C948D000C
:100040000C9473190C948D000C94D7160C9409170A
:100050000C948D000C948D000C948D000C948D00EC
:100060000C948D000C948D0000000008000201002B
:100070000003040700000000000000000102040863
:100080001020408001020408102001020408102002
:10009000040404040404040402020202020203032E
:1000A0000303030300000000250028002B000000CC
:1000B0000000240027002A007F01AC08270EC5118C
:1000C000A613B11387153917E71711241FBECFEFF9
:1000D000D8E0DEBFCDBF11E0A0E0B1E0E4E9F7E396
:1000E00002C005900D92A43FB107D9F723E0A4EF19
:1000F000B1E001C01D92AC37B207E1F710E0CAECE5
:10010000D0E004C02297FE010E943C1BC83BD107EF
:10011000C9F70E9464190C94C81B0C9400000E943B
:10012000BD196093F9017093FA018093FB019093DC
:10013000FC0161E084E00E94781A60E08AE00E949D
:10014000781A26E040E855E260E070E080ED92E049
:100150000E9475160E94BD19AB01BC018091F90186
:100160009091FA01A091FB01B091FC01481B590B41
:100170006A0B7B0B2AE030E080ED92E00E940E19C2
:100180006EE571E080ED92E00E9434186CE071E061
:1001900080ED92E00E94411864E071E080EA92E014
:1001A0000E94E610892B19F50E94BD19AB01BC0114
:1001B0008091F9019091FA01A091FB01B091FC01AD
:1001C000481B590B6A0B7B0B2AE030E080ED92E074
:1001D0000E940E196EE571E080ED92E00E943418E5
:1001E0006BE171E080ED92E00E944118FFCF08952D
:1001F000CF92DF92EF92FF92CF93DF9300D000D0A7
:1002000000D0CDB7DEB70E94BD196B017C010E9402
:10021000BD19AB01BC018091F4019091F501A09151
:10022000F601B091F701481B590B6A0B7B0B2AE0D2
:1002300030E080ED92E00E940E19C092F401D0925D
:10024000F501E092F601F092F7018091F801811139
:1002500019C063E471E080ED92E00E94341880EAF6
:1002600092E00E9445117C014AE050E0BC0180ED23
:1002700092E00E94F618EA94EF28A1F581E08093BD
:10028000F80130C06EE571E080ED92E00E94341814
:1002900061E571E080ED92E00E9434187E01E3E0B8
:1002A000EE0EF11C6E01F7E0CF0ED11C60EA72E099
:1002B000CE0101960E949D11F70161917F014AE0F4
:1002C00050E080ED92E00E941B1961E671E080ED44
:1002D00092E00E943418EC14FD0441F780ED92E0A6
:1002E0000E943D1826960FB6F894DEBF0FBECDBF14
:1002F000DF91CF91FF90EF90DF90CF9008950F9313
:1003000000E020E040E060E08AE092E00E94C01758
:100310008DEF91E00F910C94D112CF93CFB7F89459
:1003200080911302811127C0EAE9F0E08491E6E8A8
:10033000F0E09491E82FF0E0EE0FFF1FE255FF4F41
:10034000A591B4918C91892321F461E08AE00E9407
:10035000B11A61E08AE00E94781A8CB580618CBD88
:100360008CB580648CBD61E08DE00E94781A61E0FC
:100370008BE00E94781A809113028F5F80931302A2
:10038000CFBFCF910895CF92DF92EF92FF920F935C
:1003900030E0C12CF2E1DF2EFAE7EF2EF12C4C1504
:1003A0005D056E057F0540F4F694E794D794C794F5
:1003B0003F5F3630A1F737E041E04327211102C00B
:1003C00050E701C050E5242F30E035952795237084
:1003D0000C70202B252BFC012083417041830F9151
:1003E000FF90EF90DF90CF9008952091120222238A
:1003F00099F03FB7F89420911202213059F42DB3AF
:10040000209310024DB320911102209524232DBB7F
:100410003FBF02C0309310028CBD9DBD08958091F6
:100420001202882361F09FB7F89420911202809104
:100430001002213019F48DBB9FBF08958FBF08951E
:1004400090E0982F882744E050E0845F9B4F0C9405
:100450005A06282F30E02C5F3F4F922F8827860FB7
:10046000971F0C94890662E070E00C942902FB014E
:10047000282F30E02C5F3F4F922F8827642F8E0F5C
:100480009F1F0C94D005CF93DF93C82FD62F472FF3
:1004900064E070E00E9437024D2F65E070E08C2F21
:1004A000DF91CF910C943702462F62E070E00C94FC
:1004B0003702CF93DF93C82FD62F472F60E170E02C
:1004C0000E9437024D2F61E170E08C2FDF91CF91B8
:1004D0000C9437020F931F93CF93DF9300D01F929A
:1004E000CDB7DEB7182F00E021E040E059E06DE322
:1004F00070E0CE0101960E94C30189819A810E9419
:10050000F50163E070E0812F0E9429028B830E9435
:100510000F028B810F900F900F90DF91CF911F9161
:100520000F9108950F931F93CF93DF9300D0CDB712
:10053000DEB7182F63E671E080ED92E00E9441186B
:1005400000E021E040E059E06DE370E0CE0101966B
:100550000E94C30189819A810E94F50140E150E027
:10056000612F86E192E00E9453086FEF812F0E9475
:1005700054020E940F020F900F90DF91CF911F91B4
:100580000F910895CF92DF92EF92FF920F931F93F6
:10059000CF93DF9300D0CDB7DEB7182FD62E7A01D8
:1005A000C22E8FEF860F8530A8F5812F0E94920210
:1005B00000E021E040E059E06DE370E0CE010196FB
:1005C0000E94C30189819A810E94F5014D2D4C2919
:1005D00060E070E0812F0E943702E114F10411F015
:1005E000B7010AC060911402709115026F5F7F4FCE
:1005F0007093150260931402812F0E94430241E020
:1006000050E0612F86E192E00E9453080E940F02A1
:1006100081E001C080E00F900F90DF91CF911F919A
:100620000F91FF90EF90DF90CF900895CF92DF92DF
:10063000EF92FF920F931F93CF93DF9300D0CDB72C
:10064000DEB7182F7B016A01FB0180818F3F51F4D7
:1006500081818F3F99F482818F3F81F483818F3F25
:1006600069F430C081110AC0FB018181811106C08B
:100670008281811103C08381882321F1C114D104B7
:1006800009F100E021E040E059E06DE370E0CE01C7
:1006900001960E94C30189819A810E94F501B701E8
:1006A000812F0E942002B601812F0E94590244E04E
:1006B00050E0612F86E192E00E9453080E940F02F1
:1006C00081E001C080E00F900F90DF91CF911F91EA
:1006D0000F91FF90EF90DF90CF9008950F931F93AD
:1006E000CF93DF9300D0CDB7DEB7182F00E021E025
:1006F00040E059E06DE370E0CE0101960E94C30135
:1007000089819A810E94F50148E050E0612F86E1DD
:1007100092E00E9453080E940F020F900F90DF9109
:10072000CF911F910F910895BF92CF92DF92EF92D8
:10073000FF920F931F93CF93DF9300D01F92CDB7FB
:10074000DEB7B82E6B017A01413088E0580718F007
:10075000E12C98E0F92E00E021E040E059E06DE363
:1007600070E0CE0101960E94C30189819A810E94A6
:10077000F5016B2D86E192E00E94C1068C0163E0D9
:1007800070E08B2D0E9429028B830E940F028B81C7
:10079000873111F08C3131F40E9462190E151F055A
:1007A000D0F202C0E12CF12C00E021E040E059E061
:1007B0006DE370E0CE0101960E94C30189819A81A8
:1007C0000E94F5019701A6016B2D86E192E00E943F
:1007D000800740E250E06B2D86E192E00E945308D2
:1007E0008B2D0E94330284FD22C063E070E08B2DCC
:1007F0000E942902811108C00E940F028B2D0E94C5
:10080000920280E090E01AC00E940F020E946219DA
:1008100000E021E040E059E06DE370E0CE01019698
:100820000E94C30189819A810E94F501D9CF60E1BC
:100830008B2D0E9454020E940F02C7010F900F904F
:100840000F90DF91CF911F910F91FF90EF90DF906C
:10085000CF90BF900895AF92BF92CF92DF92EF9268
:10086000FF920F931F93CF93DF9300D0CDB7DEB7E6
:10087000182F5B016A0100E021E040E059E06DE3E0
:1008800070E0CE0101960E94C30189819A810E9485
:10089000F501612F86E192E00E94F5067C01009748
:1008A000A1F463E070E0812F0E942902843119F1E4
:1008B000882309F121E030E08C3111F420E030E0B0
:1008C000EE24FF24E21AF30A16C0C816D9060CF467
:1008D00076011E141F047CF400E09701A501612F2E
:1008E00086E192E00E94030840E450E0612F86E137
:1008F00092E00E9453080E940F02C7010F900F90D0
:10090000DF91CF911F910F91FF90EF90DF90CF90EB
:10091000BF90AF9008950F931F93CF93DF9300D0B4
:1009200000D0CDB7DEB7182F00E021E040E059E05D
:100930006DE370E0CE0101960E94C30189819A8126
:100940000E94F501612F86E192E00E94F5068B83FB
:100950009C830E940F028B819C810F900F900F90BF
:100960000F90DF91CF911F910F910895EF92FF9219
:100970000F931F93CF93DF9300D0CDB7DEB7182F1F
:100980007B0100E021E040E059E06DE370E0CE0142
:1009900001960E94C30189819A810E94F50101E0BC
:1009A00021E030E0A701612F86E192E00E94030878
:1009B0000E940F0281E090E00F900F90DF91CF91A5
:1009C0001F910F91FF90EF90089508959F92AF921D
:1009D000BF92CF92DF92EF92FF920F931F93CF932C
:1009E000DF9300D0CDB7DEB7982E6B015A017901A5
:1009F00000E021E040E059E06DE370E0CE010196B7
:100A00000E94C30189819A810E94F501692D86E1C6
:100A100092E00E94C1068E159F0530F4692D86E193
:100A200092E00E94C1067C0187019501A601692D13
:100A300086E192E00E9411070E940F02C7010F9009
:100A40000F90DF91CF911F910F91FF90EF90DF906A
:100A5000CF90BF90AF909F900895CF92DF92EF928A
:100A6000FF920F931F93CF93DF9300D0CDB7DEB7E4
:100A7000182F7B016A01FB018081811109C08181EE
:100A8000811106C08281811103C083818823F1F026
:100A9000C114D104D9F000E021E040E059E06DE359
:100AA00070E0CE0101960E94C30189819A810E9463
:100AB000F501B701812F0E942002B601812F0E940B
:100AC00059020E940F0281E090E002C080E090E0B5
:100AD0000F900F90DF91CF911F910F91FF90EF90AA
:100AE000DF90CF9008950F931F93CF93DF9300D0A3
:100AF000CDB7DEB7182F00E021E040E059E06DE30C
:100B000070E0CE0101960E94C30189819A810E9402
:100B1000F50140E250E0612F86E192E00E94530827
:100B2000812F0E94330284FD21C0812F0E94330255
:100B300083FF09C068E1812F0E9454020E940F02C6
:100B400080E090E01BC00E940F020E94621900E04A
:100B500021E040E059E06DE370E0CE0101960E9493
:100B6000C30189819A810E94F501DACF60E1812F6A
:100B70000E9454020E940F0281E090E00F900F90BB
:100B8000DF91CF911F910F9108958EBD00000DB49C
:100B900007FEFDCF8EB508952A9808952A9A0895E4
:100BA0001F93CF93DF9300D0CDB7DEB7182F6A83A2
:100BB00099830E94CC0580EF0E94C5059981892FF9
:100BC0000E94C505812F0E94C5056A81862F0E945B
:100BD000C5050E94CE0581E00F900F90DF91CF9167
:100BE0001F910895CF93DF93EC016CE271E080E0F8
:100BF00090E00E94EC190E948D01229A80911202CD
:100C0000882399F09FB7F89480911202813059F4AB
:100C10008DB3809310022DB38091110280958223B1
:100C20008DBB9FBF02C09093100280E58CBD1DBCA0
:100C300060E880E090E00E94D00565E58BE190E0FF
:100C40000E94D00565E58AE190E00E94D005809180
:100C50001202882361F09FB7F894209112028091CC
:100C60001002213019F48DBB9FBF01C08FBF80E0FF
:100C700090E49983888380E090E69987888780E074
:100C800098E49B838A8380E098E69B878A8780E04C
:100C900090E59D838C8380E090E79D878C8780E042
:100CA00098E59F838E8380E098E79F878E87DF910A
:100CB000CF910895CF92DF92EF92FF920F931F93FF
:100CC000CF93DF93EC017A018B016C01C40ED51E2A
:100CD000CC15DD05A1F00E94CC0580EF0E94C50572
:100CE0008D2F0E94C5058C2F0E94C5052196F80105
:100CF00081918F010E94C5050E94CE05E9CFC701F1
:100D0000DF91CF911F910F91FF90EF90DF90CF90E7
:100D100008951F93CF93DF931F92CDB7DEB7182F9F
:100D200099830E94CC058FE00E94C5059981892F87
:100D30000E94C505812F0E94C50580E00E94C5055F
:100D400089830E94CE0589810F90DF91CF911F91F9
:100D500008951F93CF93DF93182F60E270E00E94F5
:100D60002902C82FD0E061E270E0812F0E942902A1
:100D7000DC2FCC279E01282BC901DF91CF911F9139
:100D80000895FF920F931F93CF93DF93F62EC0E049
:100D9000D0E08F2D0E94A9068C01009721F08F2DA5
:100DA0000E94A906EC01C017D10799F7CE01DF9187
:100DB000CF911F910F91FF9008951F93CF93DF93D1
:100DC000182F66E270E00E942902C82FD0E067E287
:100DD00070E0812F0E942902DC2FCC279E01282B56
:100DE000C901DF91CF911F910895FF920F931F9337
:100DF000CF93DF93F62EC0E0D0E08F2D0E94DD066A
:100E00008C01009721F08F2D0E94DD06EC01C017A8
:100E1000D10799F7CE01DF91CF911F910F91FF90EC
:100E200008956F927F929F92AF92BF92CF92DF927E
:100E3000EF92FF920F931F93CF93DF931F92CDB743
:100E4000DEB7D82E962E3A01590164E270E0892D62
:100E500099830E942902E82EF12C65E270E0892D29
:100E60000E942902FE2CEE24E82AE60CF71C9701CA
:100E700037706D2C9981792E690C711C690C711C6D
:100E8000D301ED91FC91E20FF31FC901800F911F77
:100E900081309840A0F0C12C48E0D42EC21AD30A69
:100EA000A601B501CF010E945A06A8014C195D099F
:100EB000B5016C0D7D1DF3018081918103C0A801F6
:100EC000B501CF010E945A06E00EF11E4F2D64E2DB
:100ED00070E0892D0E9437024E2D65E270E0892D69
:100EE0000F90DF91CF911F910F91FF90EF90DF90C6
:100EF000CF90BF90AF909F907F906F900C943702EF
:100F00000F931F9389019A0140E050E00E9411075E
:100F10001F910F910895CF92DF92EF92FF920F935E
:100F20001F93CF93DF93EC017A018B016C01C40E08
:100F3000D51ECC15DD05A9F00E94CC058FE00E94DE
:100F4000C5058D2F0E94C5058C2F0E94C5052196D1
:100F500080E00E94C505F80181938F010E94CE05B3
:100F6000E8CFC701DF91CF911F910F91FF90EF90D4
:100F7000DF90CF900895AF92BF92CF92DF92EF9221
:100F8000FF920F931F93CF93DF9300D0CDB7DEB7BF
:100F90005A8349835901E981FA81F7707C01E60E91
:100FA000F11CE60EF11CD70118968D919C911997B2
:100FB0008E0F9F1F98012E0F3F1F2130384098F051
:100FC000C12C68E0D62ECE1ADF0AA601B5010E9418
:100FD0008B07A8014C195D09B5016C0D7D1DF7014A
:100FE0008085918502C0A801B5010F900F90DF9117
:100FF000CF911F910F91FF90EF90DF90CF90BF9016
:10100000AF900C948B078F929F92AF92BF92CF922A
:10101000DF92EF92FF920F931F93CF93DF936C01B8
:10102000962E5A017901802E68E270E0892D0E9487
:101030002902C82FD0E069E270E0892D0E942902C0
:10104000DC2FCC27C82B87019501AE01692DC60185
:101050000E94BB0781101AC0CE0DDF1D4D2F68E224
:1010600070E0892D0E9437024C2F69E270E0892DD3
:10107000DF91CF911F910F91FF90EF90DF90CF9074
:10108000BF90AF909F908F900C943702DF91CF91DB
:101090001F910F91FF90EF90DF90CF90BF90AF9096
:1010A0009F908F900895CF93C62F61E070E08C2FB2
:1010B0000E94370261E070E08C2F0E9429028111AA
:1010C000F9CFCF9108950E9624E1FC0111922A9553
:1010D000E9F70895CF93DF93EC01625F7F4F0E94A1
:1010E000CC17CE01DF91CF910895CF93DF93EC0120
:1010F0006E5E7F4F0E94CC17CE01DF91CF91089595
:10110000CF93DF93EC016A5E7F4F0E94CC17CE0134
:10111000DF91CF910895CF93DF93EC01625E7F4F13
:101120000E94CC17CE01DF91CF91089580E3FB019F
:1011300080833296842F82958F7090E1899F401929
:1011400011244A3014F4405D01C0495C4293882365
:1011500011F0482FEFCF08950F9300E020E040E01A
:1011600060E086E292E00E94C0170F9108950F930D
:101170001F93CF93DF93EC01FC01ED59FF4F1082D9
:1011800020ED37E040E050E061E070E080E090E08A
:101190000E9446196C837D838E839F836883798345
:1011A0008A839B838E01085B1F4FC8010E94031432
:1011B00064E470E0C8010E949714882381F0FE0166
:1011C000EC59FF4F118210820E94BD19CA59DF4F9E
:1011D000688379838A839B8381E090E002C080E00A
:1011E00090E0DF91CF911F910F910895CF92DF9200
:1011F000EF92FF920F931F93CF93DF93EC016B015C
:101200001AA21BA21CA21DA21EA21FA218A619A6EA
:101210001AA61BA61CA61DA61EAA1FAA18AE19AEAA
:101220002AAF3BAF4CAF5DAFFC01FE96E082F1828E
:10123000028313838C01085F1F4F86E0F80111922F
:101240008A95E9F7CE010E94630886E0F601D8018D
:1012500001900D928A95E1F7FE01E95BFF4F8FEF58
:10126000808331971082CE01DF91CF911F910F9132
:10127000FF90EF90DF90CF900C94B7086F927F9221
:101280008F929F92AF92BF92CF92DF92EF92FF9296
:101290000F931F93CF93DF93CDB7DEB7AC970FB605
:1012A000F894DEBF0FBECDBF7C01862EB42EA52ED6
:1012B00020E2922ECE0101966C01FC01292D1192A3
:1012C0002A95E9F70FEF2FEF4FEF6FEF86960E9409
:1012D000C01783EE91E09AA389A389A59AA5ABA52F
:1012E000BCA58BA39CA3ADA3BEA38701085B1F4F26
:1012F00043E450E0BE016F5D7F4FC8010E941814A7
:10130000019609F4BFC081E089838A8386E0782E44
:101310007B821C82F70164817581868197810E949E
:10132000281B6D837E838F839887A986BA8680E881
:1013300090E09C878B874CE150E0B601C8010E9489
:101340002414F601292D11922A95E9F7570188E016
:10135000A80EB11CF501D60101900D927A94E1F727
:1013600040E150E0B601C8010E942414F601119238
:101370009A94E9F796E0692E712C40E250E0B601AC
:10138000C8010E942414F1E06F1A7108B1F783E6D6
:10139000898392E89A8393E59B838C8385E38D838D
:1013A00081E08E838F829DE3988797E099878A8773
:1013B00086E0F501DE011B9601900D928A95E1F71A
:1013C0008CE0898B8A8B60E871E0CE0143960E94A5
:1013D000B91BF7014385BE01675E7F4FC7010E94BD
:1013E0009608F7014485BE01655E7F4FC7010E94E4
:1013F0009608F7014585BE01635E7F4FC7010E94D5
:1014000096084EE150E0B601C8010E942414F3E0B2
:101410008F121EC082E3898384E08A83F701968558
:101420009B8397859C8390899D8391899E8396E376
:101430009F838887828D8987838D8A87848D8B8718
:10144000858D8C874CE050E0B601C8010E942414C1
:1014500087E3898386E08A8391E09B8393E09C8382
:101460008D838FE08E838AE38F838BE388878FEF72
:10147000898749E050E0B601C8010E942414C801E0
:101480000E942014AC960FB6F894DEBF0FBECDBFFD
:10149000DF91CF911F910F91FF90EF90DF90CF9050
:1014A000BF90AF909F908F907F906F9008952F92F4
:1014B0003F924F925F926F927F928F929F92AF92E4
:1014C000BF92CF92DF92EF92FF920F931F93CF9331
:1014D000DF93CDB7DEB7E3970FB6F894DEBF0FBE4C
:1014E000CDBF7C012A013B0169010E94BD194B015E
:1014F0005C018701085B1F4FC8010E94C4141816C5
:10150000190694F00E94BD19681979098A099B0986
:101510004616570668067906F0F062E370E080E050
:1015200090E00E94EC19E8CF42E250E0BE016F5F0C
:101530007F4FC8010E9461148981823031F4F80123
:10154000858996898334910541F019A6C8010E94C6
:10155000F11389A566C18FEF64C16D817E818F8192
:1015600098850E94281B4B015C01F6016083718302
:101570008283938346E050E0B701685F7F4FCE01DE
:101580004D960E94AC1B892B99F4F70180819181C3
:10159000A281B38188169906AA06BB0648F0848109
:1015A0009581A681B78188159905AA05BB0528F400
:1015B000C8010E94F11380E034C189899A89AB89FE
:1015C000BC89F70186879787A08BB18B3EECC32E31
:1015D000D12CC8010E943814F1E0CF1AD108C9F704
:1015E00019A6C70182969BA78AA7F701B696FDA701
:1015F000ECA708969FA78EA73C976F018F9699AB93
:1016000088AB3897FBABEAAB5701F6E1AF0EB11CE4
:1016100047018EE1880E911CC8010E94D71318164D
:1016200019060CF093CFC8010E943814833391053A
:1016300009F4CDC0F4F481309105B9F11CF4892B83
:1016400059F3DFC083309105C1F1069709F0D9C085
:10165000C8010E9438143C0144E050E0B401C801C4
:101660000E946114212C312C7724F4E06F1A710848
:101670003FC08A33910509F47EC03CF4853391055F
:1016800061F0C69709F43FC0BCC08B33910509F4E3
:1016900088C08F3F910501F2B4C0C8010E94381480
:1016A000C8010E94381489A7B7CFC8010E94381416
:1016B00044E050E06AA97BA93AC0C8010E943814EE
:1016C0003C0144E050E0B501C8010E946114212CA6
:1016D000312C772494E0691A7108261437040CF031
:1016E0009BCFC8010E943814EFEF2E1A3E0AF5CFA7
:1016F000261437040CF090CFC8010E9438148FEFE5
:10170000281A380AF5CFC8010E943814782EF7013C
:10171000828D811110C0838D81110DC0848D811146
:101720000AC0858D811107C044E050E0B601C801B0
:101730000E94611471CFE8A9F9A92080318042800C
:101740005380B601CE0183960E94CC178DA19EA135
:10175000AFA1B8A582159305A405B50529F3212CE1
:10176000312C721409F458CFC8010E943814FFEFCD
:101770002F1A3F0AF6CFC8010E94381444E050E007
:101780006CA57DA5C8010E946114F70166A177A12F
:1017900080A591A50E94281B66A377A380A791A787
:1017A0003BCFC8010E94381444E050E06EA57FA5ED
:1017B000C8010E946114F70162A573A584A595A5CF
:1017C0000E94281B62A773A784A795A725CFC801ED
:1017D0000E94381444E050E06AA57BA5C8010E942D
:1017E0006114F70162A173A184A195A10E94281B35
:1017F00062A373A384A395A366A777A780AB91ABDD
:101800000BCFC8010E943814382E612C712C36146D
:1018100009F402CFC8010E943814FFEF6F1A7F0A43
:10182000F6CFE3960FB6F894DEBF0FBECDBFDF91C3
:10183000CF911F910F91FF90EF90DF90CF90BF90CD
:10184000AF909F908F907F906F905F904F903F9060
:101850002F9008956F927F928F929F92AF92BF9236
:10186000CF92DF92EF92FF920F931F93CF93DF936C
:1018700000D000D0CDB7DEB78C017C0126E4E20EAB
:10188000F11CF70170809C01295B3F4F590133E047
:10189000731609F4FBC08D599F4F6C01711026C05F
:1018A000F80184819581A681B7810196A11DB11DA2
:1018B00084839583A683B7830E94BD19F801EA59F2
:1018C000FF4F2081318142815381621B730B840B56
:1018D000950B28EE33E040E050E00E94E71AA901A2
:1018E00061E0C8010E943E0981E028C0F4E07F1257
:1018F00028C0F80184819581A681B7810196A11D38
:10190000B11D84839583A683B7830E94BD19F80116
:10191000EA59FF4F2081318142815381621B730B51
:10192000840B950B28EE33E040E050E00E94E71A6C
:10193000A90163E0C8010E943E0982E0F7018083AB
:101940009EC0F1E07F1234C0F501808198012659D4
:101950003F4F4901813039F00E94BD19F401608385
:101960007183828393839E012F5F3F4F40E050E05D
:10197000BA01C8010E94570AF60180838F3F09F01F
:101980004FC00E94BD19F4012081318142815381F1
:10199000621B730B840B950BF801FE96208131813D
:1019A000428153812617370748075907C8F167C096
:1019B000F2E07F1264C0F5018081980126593F4F03
:1019C0004901823039F00E94BD19F40160837183AE
:1019D000828393839E012F5F3F4F40E050E0BA0126
:1019E000C8010E94570AF60180838F3F09F06EC03C
:1019F0000E94BD19F4012081318142815381621B13
:101A0000730B840B950BF801FE9620813181428186
:101A10005381261737074807590708F457C02FC0C6
:101A2000F6016080F2E06F1223C089819A81AB8158
:101A3000BC81F80184839583A683B7830E94BD1976
:101A4000F801EA59FF4F2081318142815381621BA5
:101A5000730B840B950B28EE33E040E050E00E94BE
:101A6000E71AA90163E0C8010E943E09F7016082FC
:101A70000E94BD19F4016083718382839383F60110
:101A800080818F3F19F41082F7011082F501708276
:101A9000F70180818330B9F4C801885B9F4F0E94B1
:101AA0000314F80144815581668177814F5F5F4F50
:101AB0006F4F7F4F4483558366837783EC59FF4F85
:101AC0008081918163C080E090E060C0F6018081F8
:101AD000853009F055C083E0F701808381E090E014
:101AE000F801EC59FF4F91838083F80182A193A103
:101AF000A4A1B5A1892B8A2B8B2B41F484E893E018
:101B0000A0E0B0E082A393A3A4A3B5A3F80186A1AB
:101B100097A1A0A5B1A5892B8A2B8B2B61F482A15B
:101B200093A1A4A1B5A1B695A7959795879586A3EE
:101B300097A3A0A7B1A7F80142A553A564A575A5D1
:101B400086A197A1A0A5B1A5452B462B472B51F403
:101B5000AC01BD01440F551F661F771F42A753A755
:101B600064A775A7F80186A797A7A0ABB1AB82A51C
:101B700093A5A4A5B5A582AB93ABA4ABB5AB78CF29
:101B8000863009F075CFF701108272CF0F900F9059
:101B90000F900F90DF91CF911F910F91FF90EF90D9
:101BA000DF90CF90BF90AF909F908F907F906F907D
:101BB0000895FB014281538164817581FC01428358
:101BC000538364837583178216820895CF93FB0134
:101BD00081918111FDCFFB0180E090E020E030E0B9
:101BE000CAE06191662309F12430310564F56E3253
:101BF00071F48F3F910509F034F5DA01A20FB31F9C
:101C000012968C932F5F3F4F80E090E0EACFDC018B
:101C1000CA9FC001CB9F900D1124772767FD709557
:101C200060537109860F971FDCCF8F3F910509F034
:101C300054F4243031053CF4FA01E20FF31F82839F
:101C400081E090E002C080E090E0CF9108950F9392
:101C500000E020E040E060E08CE292E00E94C017EB
:101C60000F910895AF92BF92CF92DF92EF92FF92C1
:101C70000F931F93CF93DF9300D01F92CDB7DEB7A2
:101C80006C017B010E94BD19F60177836683860192
:101C9000085F1F4FB6016A5F7F4F42E050E0C80106
:101CA0000E94241481E090E09A83898342E050E00E
:101CB000BE016F5F7F4FC8010E94241480E091E055
:101CC0009A83898342E050E0BE016F5F7F4FC80175
:101CD0000E9424141A82198242E050E0BE016F5F14
:101CE0007F4FC8010E94241442E050E0BE016F5FA4
:101CF0007F4FC8010E94241442E050E0BE016F5F94
:101D00007F4FC8010E9424146701F6018081882357
:101D100011F1F7016F018191811115C05601AE18C3
:101D2000BF081A141B0494F4AB8241E050E0BE01DA
:101D30006D5F7F4FC8010E942414A501B701C8013F
:101D40000E94241403C08E3229F7E8CF7601FFEFFA
:101D5000EF1AFF0ADACF1B8241E050E0BE016D5F4F
:101D60007F4FC8010E942414E12CFF24F394FA82CF
:101D7000E98242E050E0BE016F5F7F4FC8010E94E0
:101D80002414FA82E98242E050E0BE016F5F7F4F87
:101D9000C8010E94241481E090E00F900F900F90F2
:101DA000DF91CF911F910F91FF90EF90DF90CF9037
:101DB000BF90AF9008954F925F926F927F928F92F3
:101DC0009F92AF92BF92CF92DF92EF92FF920F93CA
:101DD0001F93CF93DF93CDB7DEB763970FB6F89419
:101DE000DEBF0FBECDBF7C015B016A010E94BD1941
:101DF0002B013C018701085F1F4F4501A12CB12C2D
:101E0000C8010E94C4141816190694F00E94BD1946
:101E1000641975098609970986169706A806B906F2
:101E2000D0F062E370E080E090E00E94EC19E8CF2F
:101E3000F7014281538164817581818D928DA38DDB
:101E4000B48D481759076A077B0741F4858D968D35
:101E5000C59721F406C08FEF9FEFF9C08EEF9FEF7B
:101E6000F6C0C8010E94D7130C970CF4EEC04CE0EA
:101E700050E0BE016F5F7F4FC8010E9461148B81EB
:101E80009C819827892798279A8B898BF70146810F
:101E9000578129813A814217530711F497FD06C0F3
:101EA000C8010E94F1138CEF9FEFD1C08F70927028
:101EB000892B31F0C8010E94F1138BEF9FEFC7C04F
:101EC000AF80B884BA24AB24BA24A114B10419F0A9
:101ED000E12CF12C23C0C8010E94F1138AEF9FEF7F
:101EE000B6C041E050E0BE01635F7F4FC8010E9471
:101EF00061148D8581111BC08D858111F2CFC801C0
:101F00000E943814C8010E943814C8010E94381475
:101F1000C8010E943814FFEFEF1AFF0A8D819E81DD
:101F2000982789279827E816F906D8F20AC08D85E0
:101F30009FEF980F9D878823F9F2C8010E943814FB
:101F4000F6CFE12CF12C41E050E0BE016D5E7F4FF9
:101F5000C8010E9461148B89982F907C61F48823BA
:101F600071F08B899FEF980F9B8B882341F0C801FC
:101F70000E943814F6CFC8010E9438141B8A8B893E
:101F80008111E1CF42E050E0BE01615F7F4FC801A7
:101F90000E94611442E050E0BE01635F7F4FC801C0
:101FA0000E946114C8010E943814C8010E943814AC
:101FB000C8010E943814C8010E94381442E050E061
:101FC000BE016F5E7F4FC8010E9461148F859889A2
:101FD0008115914029F48D859E858115914019F0D8
:101FE000812C912C16C089899A898115944031F0F1
:101FF000C8010E94F11387EF9FEF29C0B6016E5F01
:102000007F4F44E050E0C8010E94611481E090E0FD
:102010001EC089899A899827892798278816990642
:1020200038F4C8010E9438142FEF821A920AF1CFB7
:102030008FEFE81AF80AEA14FB0409F084CFC8010C
:102040000E94F11386EF9FEF02C08DEF9FEF639622
:102050000FB6F894DEBF0FBECDBFDF91CF911F91B9
:102060000F91FF90EF90DF90CF90BF90AF909F9037
:102070008F907F906F905F904F9008958F929F9276
:10208000AF92BF92CF92DF92EF92FF920F931F9386
:10209000CF93DF9300D000D000D0CDB7DEB78C0156
:1020A0005B016A010E94E60D4C01009709F05DC0DA
:1020B000F801428153816481758180912E02909153
:1020C0002F02A0913002B0913102481759076A07D8
:1020D0007B0709F44EC00E94BD197801F8E0EF0EAD
:1020E000F11C6F7077277C5FC7010E9497148130C5
:1020F00009F043C083EE91E09A838983F8018281DD
:102100009381A481B5818B839C83AD83BE8345E39A
:1021100050E0BE016F5F7F4FC7010E941814892BEA
:1021200019F4812C912C1DC0B501C8010E94320EFA
:10213000892BB9F3C7010E942014892B91F333E056
:10214000A32EB12CA60168E873E1C8010E94DB0E42
:102150004C01F1E0AF1AB10821F08F3F2FEF920749
:1021600089F3C7010E94031408C088248394912C2A
:1021700004C09EEF892E99249A94C40126960FB626
:10218000F894DEBF0FBECDBFDF91CF911F910F91AD
:10219000FF90EF90DF90CF90BF90AF909F908F9087
:1021A000089544E050E0BC0181E090E00C945A06B0
:1021B00044E050E0BC0185E090E00C945A0644E015
:1021C00050E0BC018FE090E00C945A06AF92BF92B1
:1021D000CF92DF92EF92FF920F931F93CF93DF93F3
:1021E00000D000D000D0CDB7DEB76C015B0180918C
:1021F000A802811107C08AE792E00E94141581E0CD
:102200008093A80282E392E0F6019783868386E1B9
:1022100092E00E94F20580E590E00E94F50146E020
:1022200050E0B50189E090E00E945A0600E020E00D
:1022300040E060E0CE0101960E94C017CE010396F7
:102240000E94DF100E940F0210EAE12E1FE0F12E23
:1022500000E010E020E63AEE40E050E0B501F60183
:10226000868197810E94F60826960FB6F894DEBF05
:102270000FBECDBFDF91CF911F910F91FF90EF90D7
:10228000DF90CF90BF90AF9008950F931F93CF939F
:10229000DF9300D000D000D0CDB7DEB78C01FC01B9
:1022A000868197810E942A0C0197D1F580E590E004
:1022B0000E94F501F80166817781CE0101960E94A6
:1022C0006A08CE0103960E94DF10F80166817781CB
:1022D000CE0101960E948008CE0103960E94D11083
:1022E000F80166817781CE0101960E947508CE01C2
:1022F00003960E94D8100E940F02F8016681778130
:10230000CE0101960E948B084B815C816D817E819C
:10231000F801428353836483758381E090E002C0B7
:1023200080E090E026960FB6F894DEBF0FBECDBFDA
:10233000DF91CF911F910F910895CF93DF93EC011F
:102340000E94B61780E590E00E94F501BE016E5F25
:102350007F4F44E050E08FE090E00E948B070E94A6
:102360000F02CE01DF91CF91089523EE31E0FC0101
:1023700031832083FB014281538164817581FC019B
:10238000428353836483758308950F9300E020E0B4
:1023900040E060E088EB92E00E94C01780EA92E0A3
:1023A0000F910C94B61781E086270895862F089523
:1023B000DC01ED91FC91048CF58DE02D099591E007
:1023C00089270895CF93DF931F92CDB7DEB7698336
:1023D000DC01ED91FC910280F381E02D41E050E0C1
:1023E000BE016F5F7F4F09950F90DF91CF910895E8
:1023F00021E0FC018485843009F420E0822F0895D7
:10240000FC019485FB018485981303C081E094301E
:1024100009F480E008950F931F93CF93DF93EC01AD
:102420008A018C85843021F00E949403892B39F431
:1024300081E090E09B838A8380E090E001C0C80146
:10244000DF91CF911F910F910895FC018485843015
:1024500011F00C948B0480E090E00895CF93DF930B
:102460001F92CDB7DEB741E050E0BE016F5F7F4FF6
:10247000FC0184850E942B04181619061CF489811E
:1024800090E002C08FEF9FEF0F90DF91CF91089502
:10249000FC0184850C942B040F931F93CF93DF933F
:1024A0001F92CDB7DEB78C01DC01ED91FC91048069
:1024B000F581E02D0995892B51F0BE016F5F7F4FAB
:1024C000F80184850E94B604898190E002C08FEFF4
:1024D0009FEF0F90DF91CF911F910F910895FC0115
:1024E00084850C94E504CF92DF92EF92FF920F93D4
:1024F0001F93CF93DF93CDB7DEB7AF970FB6F894A6
:10250000DEBF0FBECDBF7C018B016A01CE010196FB
:102510000E94B617CE0109960E941415CE018A9624
:102520000E94B61760EA72E0CE0184960E94B5114F
:10253000BE016C5D7F4FCE0101960E94D90DAE01A8
:10254000465D5F4FB801CE0101960E943E1081307A
:102550009105C1F4D701ED91FC910484F585E02D3E
:1025600083EE91E09DA38CA30CA51DA52EA53FA5F0
:102570000EA31FA328A739A7A601BE016C5D7F4F3C
:10258000C7010995AF960FB6F894DEBF0FBECDBF59
:10259000DF91CF911F910F91FF90EF90DF90CF903F
:1025A0000895FC011382128248EE53E060E070E06F
:1025B00044835583668377838BE891E0918380839E
:1025C00084E084870895FC018485843011F00C94A4
:1025D0006A0280E00895DF92EF92FF920F931F93BB
:1025E000CF93DF93EC017B018A018C85843009F065
:1025F00045C0D12C8D2D0E946A02811102C0DC865B
:1026000007C08B7F8831D9F3D39484E0D812F2CFFE
:102610008C85843099F120910A0130910B012F5F54
:102620003F4F11F420E030EC30930B0120930A016E
:1026300040910A0150910B0120E061E00E94C2022A
:10264000B7016E5F7F4FA8018C850E941603811130
:1026500003C084E08C8712C0CE010E94E312873150
:1026600051F061E070E080E090E00E94EC19CE0152
:102670000E94E312ECCF81E090E002C080E090E0A5
:10268000DF91CF911F910F91FF90EF90DF90089510
:10269000CF92DF92EF92FF92CF93DF93EC018C8584
:1026A000843049F10E946E030E94BD196B017C01C8
:1026B000CE010E94E3128823A1F061E070E080E087
:1026C00090E00E94EC190E94BD196C197D098E09D9
:1026D0009F09683E73408105910550F38C850E94E7
:1026E0009202EC85F0E0EE0FFF1FE055FD4F1182E6
:1026F000108284E08C87DF91CF91FF90EF90DF9084
:10270000CF900895CF93DF93EC018C858430D1F086
:10271000CE010E94E3128431A9F0882399F0883118
:1027200089F08C3169F4E881F9810480F581E02D2C
:10273000CE01099521E0892B09F420E0822F03C006
:1027400081E001C080E0DF91CF9108950F9300E018
:1027500020E040E060E08EEB92E00E94C0170F9115
:1027600008950F9300E020E040E060E084EC92E008
:102770000E94C0170F910895DC01ED91FC91008C2F
:10278000F18DE02D099423EE31E0FC0131832083AB
:10279000FB014189528963897489FC014283538317
:1027A000648375830895FC01858996890895FC01E9
:1027B000818D928D0895CF93DF931F92CDB7DEB7B1
:1027C0006983DC01ED91FC910280F381E02D41E011
:1027D00050E0BE016F5F7F4F09950F90DF91CF9161
:1027E0000895CF93DF93EC01898D9A8D892B41F069
:1027F000E881F9810680F781E02DCE010995F4CFBB
:10280000DF91CF910895CF93DF93EC018C858430D5
:1028100061F00E949202EC85F0E0EE0FFF1FE055A0
:10282000FD4F1182108284E08C87DF91CF91089553
:10283000FC01108E178A6E5F7F4F84850C942D05E6
:10284000FC0184850C947305CF93DF93EC019A010E
:102850008F89988DAB01BC018C850E94E6042F897D
:10286000388D280F391F388F2F8BDF91CF91089526
:102870000F931F93CF93DF931F92CDB7DEB78C01D9
:10288000FC01818D928D892B59F041E050E0BE0111
:102890006F5F7F4F84850E942B04181619061CF069
:1028A0008FEF9FEF08C0F801818D928D0197928F75
:1028B000818F898190E00F90DF91CF911F910F91CF
:1028C0000895CF93DF93EC01898D9A8D009719F4C9
:1028D0008FEF9FEF10C04817590708F0AC018C85A7
:1028E0000E942B04181619069CF7298D3A8D281B77
:1028F000390B3A8F298FDF91CF910895CF93DF93D2
:102900001F92CDB7DEB7FC01218D328D232B49F00C
:10291000BE016F5F7F4F84850E94B604898190E07D
:1029200002C08FEF9FEF0F90DF91CF910895FF923C
:102930000F931F93CF93DF93EC018B018C85843031
:10294000E1F4F12C8F2D0E946A02811102C0FC86F5
:1029500006C08831E1F3F39484E0F812F3CF8C855C
:10296000843059F01E870D871A8E198E20E0A80139
:1029700062E00E94C20281E001C080E0DF91CF915D
:102980001F910F91FF9008950F931F93CF93DF93A3
:10299000CDB7DEB728970FB6F894DEBF0FBECDBF18
:1029A0008C01DC01ED91FC910284F385E02D099509
:1029B000F80184850E948B041816190644F548E036
:1029C00050E0BE016F5F7F4FD8011C968C910E9432
:1029D0002B0418161906ECF4BE016F5F7F4FC80177
:1029E0000F960E94DC178D8190E0982F88272E810A
:1029F000820F911DF801968B858B8F8190E0982F27
:102A000088272885820F911D928F818F02C080E0D8
:102A100090E028960FB6F894DEBF0FBECDBFDF91D1
:102A2000CF911F910F910895FC011382128248EEFD
:102A300053E060E070E044835583668377838FEAD8
:102A400091E09183808384E08487CF010F960C947A
:102A5000B617CF92DF92EF92FF920F931F93CF930F
:102A6000DF93CDB7DEB7AF970FB6F894DEBF0FBEDA
:102A7000CDBF7C018B016A01CE0101960E94B61781
:102A8000CE0109960E941415CE018A960E94B617AF
:102A900060EA72E0CE0184960E94B511BE016C5DC1
:102AA0007F4FCE0101960E94D90DAE01465D5F4F6A
:102AB000B801CE0101960E943E1081309105C1F40B
:102AC000D701ED91FC910088F189E02D83EE91E032
:102AD0009DA38CA30CA51DA52EA53FA50EA31FA3EA
:102AE00028A739A7A601BE016C5D7F4FC7010995D4
:102AF000AF960FB6F894DEBF0FBECDBFDF91CF917A
:102B00001F910F91FF90EF90DF90CF9008950F935A
:102B100000E020E040E060E08AEC92E00E94C01714
:102B20000F910895FC01818D228D90E0805C9F4F74
:102B3000821B91098F7399270895FC01918D828DD5
:102B4000981731F0828DE80FF11D858D90E0089582
:102B50008FEF9FEF0895FC01918D828D981761F0A2
:102B6000828DDF01A80FB11D5D968C91928D9F5FC4
:102B70009F73928F90E008958FEF9FEF08958FE2FB
:102B800097E1892B49F080E090E0892B29F00E94A1
:102B90002F1781110C9400000895FC01848DDF0132
:102BA000A80FB11DA35ABF4F2C91848D90E00196C0
:102BB0008F739927848FA689B7892C93A089B189AF
:102BC0008C9180648C93938D848D981306C00288B9
:102BD000F389E02D80818F7D80830895CF93DF93EB
:102BE000EC01888D8823C9F0EA89FB89808185FD05
:102BF00005C0A889B9898C9186FD0FC00FB607FC66
:102C0000F5CF808185FFF2CFA889B9898C9185FFA6
:102C1000EDCFCE010E94CD15E7CFDF91CF91089582
:102C2000CF92DF92FF920F931F93CF93DF931F9268
:102C3000CDB7DEB76C0181E0D60158968C935897DA
:102C40005B969C915B975C968C915C97981307C000
:102C50005096ED91FC915197808185FD2EC0F60133
:102C6000038D10E00F5F1F4F0F731127F02EF60139
:102C7000848DF81211C00FB607FCF9CFD60150961B
:102C8000ED91FC915197808185FFF1CFC601698359
:102C90000E94CD156981EBCF838DE80FF11DE35ABA
:102CA000FF4F6083D6015B960C935B975296ED9134
:102CB000FC915397808180620CC0D6015696ED91AD
:102CC000FC91579760835096ED91FC9151978081CC
:102CD0008064808381E090E00F90DF91CF911F911D
:102CE0000F91FF90DF90CF900895BF92CF92DF9227
:102CF000EF92FF92CF93DF93EC016A017B01B22E3A
:102D0000E889F98982E08083411581EE58076105E1
:102D10007105A1F060E079E08DE390E0A7019601F4
:102D20000E94E71A215031094109510956954795EA
:102D300037952795211580E1380798F0E889F989BA
:102D4000108260E874E88EE190E0A70196010E948D
:102D5000E71A215031094109510956954795379590
:102D60002795EC85FD853083EE85FF852083188EC1
:102D7000EC89FD89B082EA89FB898081806180834A
:102D8000EA89FB89808188608083EA89FB89808168
:102D900080688083EA89FB8980818F7D8083DF91D1
:102DA000CF91FF90EF90DF90CF90BF9008951F924A
:102DB0000F920FB60F9211242F938F939F93EF933F
:102DC000FF93E091E002F091E1028081E091E60260
:102DD000F091E70282FD12C090818091E9028F5F3D
:102DE0008F732091EA02821751F0E091E902F0E03E
:102DF000E053FD4F958F8093E90201C08081FF91E0
:102E0000EF919F918F912F910F900FBE0F901F9078
:102E100018951F920F920FB60F9211242F933F9384
:102E20004F935F936F937F938F939F93AF93BF93D2
:102E3000EF93FF9380ED92E00E94CD15FF91EF910B
:102E4000BF91AF919F918F917F916F915F914F91C2
:102E50003F912F910F900FBE0F901F90189580ED0E
:102E600092E00E94921521E0892B09F420E0822F44
:102E700008951092D3021092D20288EE93E0A0E05F
:102E8000B0E08093D4029093D502A093D602B09381
:102E9000D70283ED91E09093D1028093D00285EC2C
:102EA00090E09093DD028093DC0284EC90E09093BC
:102EB000DF028093DE0280EC90E09093E102809349
:102EC000E00281EC90E09093E3028093E20282ECD6
:102ED00090E09093E5028093E40286EC90E090937A
:102EE000E7028093E6021092E9021092EA02109241
:102EF000EB021092EC020895AF92BF92CF92DF9254
:102F0000EF92FF920F931F93CF93DF936C017B019E
:102F1000C0E0D0E000E010E0F601EC0FFD1F4AE059
:102F200050E06281C7010E941B195C016EE2C7017B
:102F30000E9436188A0D9B1D080F191F2196C33059
:102F4000D10551F74AE050E0F6016581C7010E94C2
:102F50001B19800F911FDF91CF911F910F91FF904F
:102F6000EF90DF90CF90BF90AF90089523EE31E0C7
:102F7000FC0131832083128213821482158208950A
:102F80000F93FC0183EE91E09183808362834383FE
:102F9000248305830F91089523EE31E0FC013183F2
:102FA0002083FB014081518162817381FC01428356
:102FB0005383648375830895FB014081518162814D
:102FC0007381FC014283538364837583089583EE88
:102FD00091E090936E0380936D0310926F031092B3
:102FE000700310927103109272030895CF92DF92D2
:102FF000EF92FF920F931F93CF93DF936C017A01AF
:10300000EB01E60EF71E00E010E0CE15DF0561F0E3
:103010006991D601ED91FC910190F081E02DC601FE
:103020000995080F191FF1CFC801DF91CF911F91AA
:103030000F91FF90EF90DF90CF900895611571058B
:1030400081F0DB010D900020E9F7AD0141505109FD
:10305000461B570BDC01ED91FC910280F381E02DC2
:10306000099480E090E008950C941E18DC01ED9125
:10307000FC910190F081E02D099465EE71E00C94D3
:103080001E180F931F93CF93DF93EC010E941E181D
:103090008C01CE010E943D18800F911FDF91CF91CE
:1030A0001F910F9108958F929F92AF92BF92CF92EE
:1030B000DF92EF92FF920F931F93CF93DF93CDB7E1
:1030C000DEB7A1970FB6F894DEBF0FBECDBF7C016F
:1030D000C42EE52FCB01D22E19A221E02D1510F020
:1030E0002AE0D22E8E010F5D1F4F8D2C912CA12C2A
:1030F000B12C6C2D7E2FA50194010E94E71A8C2D16
:10310000D29E80191124015011098A3014F4805D77
:1031100001C0895CF8018083211531054105510505
:1031200021F0C22EE32FCA01E4CFB801C7010E94EB
:103130001E18A1960FB6F894DEBF0FBECDBFDF916B
:10314000CF911F910F91FF90EF90DF90CF90BF90A4
:10315000AF909F908F900895CF92DF92EF92FF9261
:103160000F931F93CF93DF93EC016A017B0121152D
:10317000310579F4E881F9810190F081E02D642F27
:10318000DF91CF911F910F91FF90EF90DF90CF9043
:1031900009942A303105E9F477FF1AC06DE20E94E4
:1031A00036188C0144275527BA014C195D096E0960
:1031B0007F092AE0CE010E945318800F911FDF91F2
:1031C000CF911F910F91FF90EF90DF90CF900895D6
:1031D0002AE0B701A601CE01DF91CF911F910F9197
:1031E000FF90EF90DF90CF900C9453180F931F93A4
:1031F000CF93DF93EC019A01AB01662757FD6095F1
:10320000762F0E94AC188C01CE010E943D18800FD1
:10321000911FDF91CF911F910F91089521153105D5
:1032200041F4DC01ED91FC910190F081E02D642FDF
:1032300009940C9453189A01462F50E060E070E016
:103240000C940E19CF93DF9300D000D0CDB7DEB72A
:103250009B01AC01611571058105910569F06983D8
:103260003A834B835C830E949E1B29813A814B8168
:103270005C810E94091B03C060E070E0CB010F90ED
:103280000F900F900F90DF91CF910895CF92DF9222
:10329000EF92FF926B017C01621773078407950719
:1032A00064F4CA01B9016C197D098E099F090E9455
:1032B00022196C0D7D1D8E1D9F1DFF90EF90DF90DC
:1032C000CF900895089508950E94141A0E946319DA
:1032D0000E948F00CFEBD5E10E94F8002097E1F328
:1032E0000E94BF15F9CF1F920F920FB60F921124B3
:1032F0002F933F938F939F93AF93BF9380917403CA
:1033000090917503A0917603B09177033091730388
:1033100023E0230F2D3720F40196A11DB11D05C018
:1033200026E8230F0296A11DB11D209373038093FD
:10333000740390937503A0937603B0937703809101
:10334000780390917903A0917A03B0917B03019661
:10335000A11DB11D8093780390937903A0937A0304
:10336000B0937B03BF91AF919F918F913F912F912C
:103370000F900FBE0F901F9018952FB7F894609183
:1033800074037091750380917603909177032FBF3A
:1033900008953FB7F8948091780390917903A091B4
:1033A0007A03B0917B0326B5A89B05C02F3F19F087
:1033B0000196A11DB11D3FBF6627782F892F9A2F37
:1033C000620F711D811D911D42E0660F771F881FDE
:1033D000991F4A95D1F70895CF92DF92EF92FF920D
:1033E000CF93DF936B017C010E94C919EB01C114DB
:1033F000D104E104F10489F00E9462190E94C91904
:103400006C1B7D0B683E734090F381E0C81AD108B5
:10341000E108F108C851DC4FEACFDF91CF91FF906E
:10342000EF90DF90CF900895789484B5826084BD4A
:1034300084B5816084BD85B5826085BD85B58160B8
:1034400085BDEEE6F0E0808181608083E1E8F0E018
:103450001082808182608083808181608083E0E847
:10346000F0E0808181608083E1EBF0E08081846026
:103470008083E0EBF0E0808181608083EAE7F0E028
:10348000808184608083808182608083808181608C
:1034900080838081806880831092C100089583308A
:1034A00081F028F4813099F08230A1F008958730BE
:1034B000A9F08830B9F08430D1F4809180008F7DFC
:1034C00003C0809180008F7780938000089584B539
:1034D0008F7702C084B58F7D84BD08958091B00040
:1034E0008F7703C08091B0008F7D8093B0000895E6
:1034F000CF93DF9390E0FC01E458FF4F2491FC014F
:10350000E057FF4F8491882349F190E0880F991F7D
:10351000FC01E255FF4FA591B4918C559F4FFC01E2
:10352000C591D4919FB7611108C0F8948C912095F2
:1035300082238C93888182230AC0623051F4F894EC
:103540008C91322F309583238C938881822B8883B2
:1035500004C0F8948C91822B8C939FBFDF91CF9104
:1035600008950F931F93CF93DF931F92CDB7DEB7CC
:10357000282F30E0F901E859FF4F8491F901E45810
:10358000FF4F1491F901E057FF4F04910023C9F058
:10359000882321F069830E944F1A6981E02FF0E0AF
:1035A000EE0FFF1FEC55FF4FA591B4919FB7F89414
:1035B0008C91611103C01095812301C0812B8C93E4
:1035C0009FBF0F90DF91CF911F910F910895A1E2BE
:1035D0001A2EAA1BBB1BFD010DC0AA1FBB1FEE1F8D
:1035E000FF1FA217B307E407F50720F0A21BB30BD8
:1035F000E40BF50B661F771F881F991F1A9469F754
:1036000060957095809590959B01AC01BD01CF01AF
:103610000895052E97FB1EF400940E94201B57FD71
:1036200007D00E94E71A07FC03D04EF40C94201B2D
:1036300050954095309521953F4F4F4F5F4F0895DE
:1036400090958095709561957F4F8F4F9F4F08950E
:1036500069279627692778278727782708950E9462
:10366000401BA59F900DB49F900DA49F800D911DB0
:1036700011240895EE0FFF1F0590F491E02D099499
:10368000A29FB001B39FC001A39F700D811D1124A3
:10369000911DB29F700D811D1124911D08958F926F
:1036A0009F92AF92BF92CF92DF92EF92FF92CF9311
:1036B000DF93EC01688179818A819B8161157105B5
:1036C0008105910521F464E279ED8BE597E02DE128
:1036D00033EF41E050E00E94091B49015A019B0170
:1036E000AC01A7EAB1E40E942F1B6B017C01ACEE98
:1036F000B4EFA50194010E94C31BC60ED71EE81E9D
:10370000F91EF7FE06C081E0C81AD108E10880E87A
:10371000F80AC882D982EA82FB82C701B6019F7784
:10372000DF91CF91FF90EF90DF90CF90BF90AF905F
:103730009F908F9008950E944F1B089580E091E024
:103740000E944F1B089560930001709301018093C4
:103750000201909303010895FB01DC0104C08D91E7
:103760000190801921F441505040C8F7881B990BF3
:103770000895FB01DC0101900D920020E1F708950E
:10378000B7FF0C942F1B0E942F1B821B930B0895D5
:04379000F894FFCFDB
:103794000100000000AABBCCDE0200C045746865CD
:1037A400726E657420626567696E004661696C6556
:1037B4006420746F20636F6E666967757265204557
:1037C400746865726E6574207573696E6720444809
:1037D4004350003A20444843502053746174757335
:1037E400004D7920495020616464726573733A20F6
:1037F400002E004168682120436C6F736520776157
:10380400732063616C6C6564212048656C702100D1
:1038140057495A6E65740000000000E2110B12252E
:10382400122E124C126F12EB1273124812481382AA
:1038340013F811D311D6110012D81100000000DBC7
:10384400132414D71338147E14F113971403141883
:103854001429152014C4146114BC13C313D3130006
:103864000000001016F6179215AB159D15EE150005
:103874000000007C170D0A006E616E00696E660020
:043884006F766600F5
:00000001FF
